{"contracts/VotingContract.sol":{"Create":{"abi":[{"inputs":[],"stateMutability":"nonpayable","type":"constructor"},{"anonymous":false,"inputs":[{"indexed":true,"internalType":"uint256","name":"candidateId","type":"uint256"},{"indexed":false,"internalType":"uint256","name":"voteCount","type":"uint256"},{"indexed":false,"internalType":"string","name":"age","type":"string"},{"indexed":false,"internalType":"string","name":"name","type":"string"},{"indexed":false,"internalType":"string","name":"image","type":"string"},{"indexed":false,"internalType":"address","name":"candidateAddress","type":"address"},{"indexed":false,"internalType":"string","name":"ipfs","type":"string"}],"name":"CandidateCreated","type":"event"},{"anonymous":false,"inputs":[{"indexed":true,"internalType":"uint256","name":"voterId","type":"uint256"},{"indexed":false,"internalType":"uint256","name":"allowed","type":"uint256"},{"indexed":false,"internalType":"uint256","name":"vote","type":"uint256"},{"indexed":false,"internalType":"string","name":"name","type":"string"},{"indexed":false,"internalType":"string","name":"image","type":"string"},{"indexed":false,"internalType":"address","name":"voterAddress","type":"address"},{"indexed":false,"internalType":"bool","name":"voted","type":"bool"},{"indexed":false,"internalType":"string","name":"ipfs","type":"string"}],"name":"VoterCreated","type":"event"},{"inputs":[{"internalType":"uint256","name":"","type":"uint256"}],"name":"candidateAddresses","outputs":[{"internalType":"address","name":"","type":"address"}],"stateMutability":"view","type":"function"},{"inputs":[{"internalType":"address","name":"","type":"address"}],"name":"candidates","outputs":[{"internalType":"uint256","name":"candidateId","type":"uint256"},{"internalType":"uint256","name":"voteCount","type":"uint256"},{"internalType":"string","name":"age","type":"string"},{"internalType":"string","name":"name","type":"string"},{"internalType":"string","name":"image","type":"string"},{"internalType":"address","name":"candidateAddress","type":"address"},{"internalType":"string","name":"ipfs","type":"string"}],"stateMutability":"view","type":"function"},{"inputs":[{"internalType":"address","name":"_address","type":"address"}],"name":"getCandidateData","outputs":[{"internalType":"string","name":"","type":"string"},{"internalType":"string","name":"","type":"string"},{"internalType":"uint256","name":"","type":"uint256"},{"internalType":"string","name":"","type":"string"},{"internalType":"uint256","name":"","type":"uint256"},{"internalType":"string","name":"","type":"string"},{"internalType":"address","name":"","type":"address"}],"stateMutability":"view","type":"function"},{"inputs":[],"name":"getCandidateLength","outputs":[{"internalType":"uint256","name":"","type":"uint256"}],"stateMutability":"view","type":"function"},{"inputs":[],"name":"getCandidates","outputs":[{"internalType":"address[]","name":"","type":"address[]"}],"stateMutability":"view","type":"function"},{"inputs":[],"name":"getVotedVoterList","outputs":[{"internalType":"address[]","name":"","type":"address[]"}],"stateMutability":"view","type":"function"},{"inputs":[{"internalType":"address","name":"_address","type":"address"}],"name":"getVoterData","outputs":[{"internalType":"uint256","name":"","type":"uint256"},{"internalType":"string","name":"","type":"string"},{"internalType":"string","name":"","type":"string"},{"internalType":"address","name":"","type":"address"},{"internalType":"string","name":"","type":"string"},{"internalType":"uint256","name":"","type":"uint256"},{"internalType":"bool","name":"","type":"bool"}],"stateMutability":"view","type":"function"},{"inputs":[],"name":"getVoterLength","outputs":[{"internalType":"uint256","name":"","type":"uint256"}],"stateMutability":"view","type":"function"},{"inputs":[],"name":"getVoterList","outputs":[{"internalType":"address[]","name":"","type":"address[]"}],"stateMutability":"view","type":"function"},{"inputs":[{"internalType":"address","name":"_address","type":"address"},{"internalType":"string","name":"_name","type":"string"},{"internalType":"string","name":"_image","type":"string"},{"internalType":"string","name":"_ipfs","type":"string"}],"name":"giveVoterRight","outputs":[],"stateMutability":"nonpayable","type":"function"},{"inputs":[{"internalType":"address","name":"_address","type":"address"},{"internalType":"string","name":"_age","type":"string"},{"internalType":"string","name":"_name","type":"string"},{"internalType":"string","name":"_image","type":"string"},{"internalType":"string","name":"_ipfs","type":"string"}],"name":"setCandidate","outputs":[],"stateMutability":"nonpayable","type":"function"},{"inputs":[{"internalType":"address","name":"_candidateAddress","type":"address"}],"name":"vote","outputs":[],"stateMutability":"nonpayable","type":"function"},{"inputs":[{"internalType":"uint256","name":"","type":"uint256"}],"name":"votedVoters","outputs":[{"internalType":"address","name":"","type":"address"}],"stateMutability":"view","type":"function"},{"inputs":[{"internalType":"uint256","name":"","type":"uint256"}],"name":"voterAddresses","outputs":[{"internalType":"address","name":"","type":"address"}],"stateMutability":"view","type":"function"},{"inputs":[{"internalType":"address","name":"","type":"address"}],"name":"voters","outputs":[{"internalType":"uint256","name":"voterId","type":"uint256"},{"internalType":"uint256","name":"allowed","type":"uint256"},{"internalType":"uint256","name":"vote","type":"uint256"},{"internalType":"string","name":"name","type":"string"},{"internalType":"string","name":"image","type":"string"},{"internalType":"address","name":"voterAddress","type":"address"},{"internalType":"bool","name":"voted","type":"bool"},{"internalType":"string","name":"ipfs","type":"string"}],"stateMutability":"view","type":"function"},{"inputs":[],"name":"votingOrganizer","outputs":[{"internalType":"address","name":"","type":"address"}],"stateMutability":"view","type":"function"}],"evm":{"bytecode":{"linkReferences":{},"object":"608060405234801561001057600080fd5b5033600260006101000a81548173ffffffffffffffffffffffffffffffffffffffff021916908373ffffffffffffffffffffffffffffffffffffffff1602179055506125f2806100616000396000f3fe608060405234801561001057600080fd5b50600436106101005760003560e01c80638e94568511610097578063c91ec71211610066578063c91ec712146102dc578063d55d73c5146102f8578063dd0e237314610328578063f7522a831461035857610100565b80638e945685146102335780638fb4cd8014610251578063a3ec138d14610287578063b28d92ae146102be57610100565b80636dd7d8ea116100d35780636dd7d8ea1461019557806377a3f3d6146101b15780637831ffb3146101cd5780638ab66a90146101fd57610100565b806305ad45a41461010557806306a49fce146101235780632a466ac7146101415780635cc48aa714610177575b600080fd5b61010d610376565b60405161011a91906116f2565b60405180910390f35b61012b610383565b60405161013891906117fd565b60405180910390f35b61015b6004803603810190610156919061185f565b610411565b60405161016e979695949392919061192b565b60405180910390f35b61017f6106e9565b60405161018c91906119b6565b60405180910390f35b6101af60048036038101906101aa919061185f565b61070f565b005b6101cb60048036038101906101c69190611b06565b610917565b005b6101e760048036038101906101e29190611bed565b610bae565b6040516101f491906119b6565b60405180910390f35b6102176004803603810190610212919061185f565b610bed565b60405161022a9796959493929190611c1a565b60405180910390f35b61023b610e6f565b60405161024891906117fd565b60405180910390f35b61026b6004803603810190610266919061185f565b610efd565b60405161027e9796959493929190611cc0565b60405180910390f35b6102a1600480360381019061029c919061185f565b611157565b6040516102b5989796959493929190611d44565b60405180910390f35b6102c6611364565b6040516102d391906117fd565b60405180910390f35b6102f660048036038101906102f19190611dd7565b6113f2565b005b610312600480360381019061030d9190611bed565b61162a565b60405161031f91906119b6565b60405180910390f35b610342600480360381019061033d9190611bed565b611669565b60405161034f91906119b6565b60405180910390f35b6103606116a8565b60405161036d91906116f2565b60405180910390f35b6000600680549050905090565b6060600380548060200260200160405190810160405280929190818152602001828054801561040757602002820191906000526020600020905b8160009054906101000a900473ffffffffffffffffffffffffffffffffffffffff1673ffffffffffffffffffffffffffffffffffffffff16815260200190600101908083116103bd575b5050505050905090565b6060806000606060006060600080600460008a73ffffffffffffffffffffffffffffffffffffffff1673ffffffffffffffffffffffffffffffffffffffff168152602001908152602001600020905080600201816003018260000154836004018460010154856006018660050160009054906101000a900473ffffffffffffffffffffffffffffffffffffffff168680546104ab90611ef1565b80601f01602080910402602001604051908101604052809291908181526020018280546104d790611ef1565b80156105245780601f106104f957610100808354040283529160200191610524565b820191906000526020600020905b81548152906001019060200180831161050757829003601f168201915b5050505050965085805461053790611ef1565b80601f016020809104026020016040519081016040528092919081815260200182805461056390611ef1565b80156105b05780601f10610585576101008083540402835291602001916105b0565b820191906000526020600020905b81548152906001019060200180831161059357829003601f168201915b505050505095508380546105c390611ef1565b80601f01602080910402602001604051908101604052809291908181526020018280546105ef90611ef1565b801561063c5780601f106106115761010080835404028352916020019161063c565b820191906000526020600020905b81548152906001019060200180831161061f57829003601f168201915b5050505050935081805461064f90611ef1565b80601f016020809104026020016040519081016040528092919081815260200182805461067b90611ef1565b80156106c85780601f1061069d576101008083540402835291602001916106c8565b820191906000526020600020905b8154815290600101906020018083116106ab57829003601f168201915b50505050509150975097509750975097509750975050919395979092949650565b600260009054906101000a900473ffffffffffffffffffffffffffffffffffffffff1681565b6000600760003373ffffffffffffffffffffffffffffffffffffffff1673ffffffffffffffffffffffffffffffffffffffff16815260200190815260200160002090508060050160149054906101000a900460ff16156107a4576040517f08c379a000000000000000000000000000000000000000000000000000000000815260040161079b90611f6e565b60405180910390fd5b60008160010154036107eb576040517f08c379a00000000000000000000000000000000000000000000000000000000081526004016107e290611fda565b60405180910390fd5b60018160050160146101000a81548160ff021916908315150217905550600460008373ffffffffffffffffffffffffffffffffffffffff1673ffffffffffffffffffffffffffffffffffffffff1681526020019081526020016000206000015481600201819055506005339080600181540180825580915050600190039060005260206000200160009091909190916101000a81548173ffffffffffffffffffffffffffffffffffffffff021916908373ffffffffffffffffffffffffffffffffffffffff1602179055508060010154600460008473ffffffffffffffffffffffffffffffffffffffff1673ffffffffffffffffffffffffffffffffffffffff168152602001908152602001600020600101600082825461090c9190612029565b925050819055505050565b3373ffffffffffffffffffffffffffffffffffffffff16600260009054906101000a900473ffffffffffffffffffffffffffffffffffffffff1673ffffffffffffffffffffffffffffffffffffffff16146109a7576040517f08c379a000000000000000000000000000000000000000000000000000000000815260040161099e906120a9565b60405180910390fd5b6109b160006116b5565b60006109bd60006116cb565b90506000600760008773ffffffffffffffffffffffffffffffffffffffff1673ffffffffffffffffffffffffffffffffffffffff16815260200190815260200160002090506000816001015414610a49576040517f08c379a0000000000000000000000000000000000000000000000000000000008152600401610a4090612115565b60405180910390fd5b8181600001819055506001816001018190555084816003019081610a6d91906122e1565b5083816004019081610a7f91906122e1565b50858160050160006101000a81548173ffffffffffffffffffffffffffffffffffffffff021916908373ffffffffffffffffffffffffffffffffffffffff1602179055506000816002018190555060008160050160146101000a81548160ff02191690831515021790555082816006019081610afb91906122e1565b506006869080600181540180825580915050600190039060005260206000200160009091909190916101000a81548173ffffffffffffffffffffffffffffffffffffffff021916908373ffffffffffffffffffffffffffffffffffffffff160217905550817f6012b648ea9572515d85c8e1fe8564844ae1f444101e5d111a6d2da846cbcdb56001600088888b60008a604051610b9e9796959493929190612429565b60405180910390a2505050505050565b60058181548110610bbe57600080fd5b906000526020600020016000915054906101000a900473ffffffffffffffffffffffffffffffffffffffff1681565b6004602052806000526040600020600091509050806000015490806001015490806002018054610c1c90611ef1565b80601f0160208091040260200160405190810160405280929190818152602001828054610c4890611ef1565b8015610c955780601f10610c6a57610100808354040283529160200191610c95565b820191906000526020600020905b815481529060010190602001808311610c7857829003601f168201915b505050505090806003018054610caa90611ef1565b80601f0160208091040260200160405190810160405280929190818152602001828054610cd690611ef1565b8015610d235780601f10610cf857610100808354040283529160200191610d23565b820191906000526020600020905b815481529060010190602001808311610d0657829003601f168201915b505050505090806004018054610d3890611ef1565b80601f0160208091040260200160405190810160405280929190818152602001828054610d6490611ef1565b8015610db15780601f10610d8657610100808354040283529160200191610db1565b820191906000526020600020905b815481529060010190602001808311610d9457829003601f168201915b5050505050908060050160009054906101000a900473ffffffffffffffffffffffffffffffffffffffff1690806006018054610dec90611ef1565b80601f0160208091040260200160405190810160405280929190818152602001828054610e1890611ef1565b8015610e655780601f10610e3a57610100808354040283529160200191610e65565b820191906000526020600020905b815481529060010190602001808311610e4857829003601f168201915b5050505050905087565b60606005805480602002602001604051908101604052809291908181526020018280548015610ef357602002820191906000526020600020905b8160009054906101000a900473ffffffffffffffffffffffffffffffffffffffff1673ffffffffffffffffffffffffffffffffffffffff1681526020019060010190808311610ea9575b5050505050905090565b6000606080600060606000806000600760008a73ffffffffffffffffffffffffffffffffffffffff1673ffffffffffffffffffffffffffffffffffffffff1681526020019081526020016000209050806000015481600301826004018360050160009054906101000a900473ffffffffffffffffffffffffffffffffffffffff168460060185600101548660050160149054906101000a900460ff16858054610fa590611ef1565b80601f0160208091040260200160405190810160405280929190818152602001828054610fd190611ef1565b801561101e5780601f10610ff35761010080835404028352916020019161101e565b820191906000526020600020905b81548152906001019060200180831161100157829003601f168201915b5050505050955084805461103190611ef1565b80601f016020809104026020016040519081016040528092919081815260200182805461105d90611ef1565b80156110aa5780601f1061107f576101008083540402835291602001916110aa565b820191906000526020600020905b81548152906001019060200180831161108d57829003601f168201915b505050505094508280546110bd90611ef1565b80601f01602080910402602001604051908101604052809291908181526020018280546110e990611ef1565b80156111365780601f1061110b57610100808354040283529160200191611136565b820191906000526020600020905b81548152906001019060200180831161111957829003601f168201915b50505050509250975097509750975097509750975050919395979092949650565b600760205280600052604060002060009150905080600001549080600101549080600201549080600301805461118c90611ef1565b80601f01602080910402602001604051908101604052809291908181526020018280546111b890611ef1565b80156112055780601f106111da57610100808354040283529160200191611205565b820191906000526020600020905b8154815290600101906020018083116111e857829003601f168201915b50505050509080600401805461121a90611ef1565b80601f016020809104026020016040519081016040528092919081815260200182805461124690611ef1565b80156112935780601f1061126857610100808354040283529160200191611293565b820191906000526020600020905b81548152906001019060200180831161127657829003601f168201915b5050505050908060050160009054906101000a900473ffffffffffffffffffffffffffffffffffffffff16908060050160149054906101000a900460ff16908060060180546112e190611ef1565b80601f016020809104026020016040519081016040528092919081815260200182805461130d90611ef1565b801561135a5780601f1061132f5761010080835404028352916020019161135a565b820191906000526020600020905b81548152906001019060200180831161133d57829003601f168201915b5050505050905088565b606060068054806020026020016040519081016040528092919081815260200182805480156113e857602002820191906000526020600020905b8160009054906101000a900473ffffffffffffffffffffffffffffffffffffffff1673ffffffffffffffffffffffffffffffffffffffff168152602001906001019080831161139e575b5050505050905090565b3373ffffffffffffffffffffffffffffffffffffffff16600260009054906101000a900473ffffffffffffffffffffffffffffffffffffffff1673ffffffffffffffffffffffffffffffffffffffff1614611482576040517f08c379a00000000000000000000000000000000000000000000000000000000081526004016114799061251f565b60405180910390fd5b61148c60016116b5565b600061149860016116cb565b90506000600460008873ffffffffffffffffffffffffffffffffffffffff1673ffffffffffffffffffffffffffffffffffffffff1681526020019081526020016000209050818160000181905550858160020190816114f791906122e1565b508481600301908161150991906122e1565b508381600401908161151b91906122e1565b5060008160010181905550868160050160006101000a81548173ffffffffffffffffffffffffffffffffffffffff021916908373ffffffffffffffffffffffffffffffffffffffff1602179055508281600601908161157a91906122e1565b506003879080600181540180825580915050600190039060005260206000200160009091909190916101000a81548173ffffffffffffffffffffffffffffffffffffffff021916908373ffffffffffffffffffffffffffffffffffffffff160217905550817ffa766f092fa368698853d6c1d2191ffa738abc81f3cf7456d26147edbbed685f60008888888c896040516116199695949392919061253f565b60405180910390a250505050505050565b6003818154811061163a57600080fd5b906000526020600020016000915054906101000a900473ffffffffffffffffffffffffffffffffffffffff1681565b6006818154811061167957600080fd5b906000526020600020016000915054906101000a900473ffffffffffffffffffffffffffffffffffffffff1681565b6000600380549050905090565b6001816000016000828254019250508190555050565b600081600001549050919050565b6000819050919050565b6116ec816116d9565b82525050565b600060208201905061170760008301846116e3565b92915050565b600081519050919050565b600082825260208201905092915050565b6000819050602082019050919050565b600073ffffffffffffffffffffffffffffffffffffffff82169050919050565b600061176482611739565b9050919050565b61177481611759565b82525050565b6000611786838361176b565b60208301905092915050565b6000602082019050919050565b60006117aa8261170d565b6117b48185611718565b93506117bf83611729565b8060005b838110156117f05781516117d7888261177a565b97506117e283611792565b9250506001810190506117c3565b5085935050505092915050565b60006020820190508181036000830152611817818461179f565b905092915050565b6000604051905090565b600080fd5b600080fd5b61183c81611759565b811461184757600080fd5b50565b60008135905061185981611833565b92915050565b60006020828403121561187557611874611829565b5b60006118838482850161184a565b91505092915050565b600081519050919050565b600082825260208201905092915050565b60005b838110156118c65780820151818401526020810190506118ab565b60008484015250505050565b6000601f19601f8301169050919050565b60006118ee8261188c565b6118f88185611897565b93506119088185602086016118a8565b611911816118d2565b840191505092915050565b61192581611759565b82525050565b600060e0820190508181036000830152611945818a6118e3565b9050818103602083015261195981896118e3565b905061196860408301886116e3565b818103606083015261197a81876118e3565b905061198960808301866116e3565b81810360a083015261199b81856118e3565b90506119aa60c083018461191c565b98975050505050505050565b60006020820190506119cb600083018461191c565b92915050565b600080fd5b600080fd5b7f4e487b7100000000000000000000000000000000000000000000000000000000600052604160045260246000fd5b611a13826118d2565b810181811067ffffffffffffffff82111715611a3257611a316119db565b5b80604052505050565b6000611a4561181f565b9050611a518282611a0a565b919050565b600067ffffffffffffffff821115611a7157611a706119db565b5b611a7a826118d2565b9050602081019050919050565b82818337600083830152505050565b6000611aa9611aa484611a56565b611a3b565b905082815260208101848484011115611ac557611ac46119d6565b5b611ad0848285611a87565b509392505050565b600082601f830112611aed57611aec6119d1565b5b8135611afd848260208601611a96565b91505092915050565b60008060008060808587031215611b2057611b1f611829565b5b6000611b2e8782880161184a565b945050602085013567ffffffffffffffff811115611b4f57611b4e61182e565b5b611b5b87828801611ad8565b935050604085013567ffffffffffffffff811115611b7c57611b7b61182e565b5b611b8887828801611ad8565b925050606085013567ffffffffffffffff811115611ba957611ba861182e565b5b611bb587828801611ad8565b91505092959194509250565b611bca816116d9565b8114611bd557600080fd5b50565b600081359050611be781611bc1565b92915050565b600060208284031215611c0357611c02611829565b5b6000611c1184828501611bd8565b91505092915050565b600060e082019050611c2f600083018a6116e3565b611c3c60208301896116e3565b8181036040830152611c4e81886118e3565b90508181036060830152611c6281876118e3565b90508181036080830152611c7681866118e3565b9050611c8560a083018561191c565b81810360c0830152611c9781846118e3565b905098975050505050505050565b60008115159050919050565b611cba81611ca5565b82525050565b600060e082019050611cd5600083018a6116e3565b8181036020830152611ce781896118e3565b90508181036040830152611cfb81886118e3565b9050611d0a606083018761191c565b8181036080830152611d1c81866118e3565b9050611d2b60a08301856116e3565b611d3860c0830184611cb1565b98975050505050505050565b600061010082019050611d5a600083018b6116e3565b611d67602083018a6116e3565b611d7460408301896116e3565b8181036060830152611d8681886118e3565b90508181036080830152611d9a81876118e3565b9050611da960a083018661191c565b611db660c0830185611cb1565b81810360e0830152611dc881846118e3565b90509998505050505050505050565b600080600080600060a08688031215611df357611df2611829565b5b6000611e018882890161184a565b955050602086013567ffffffffffffffff811115611e2257611e2161182e565b5b611e2e88828901611ad8565b945050604086013567ffffffffffffffff811115611e4f57611e4e61182e565b5b611e5b88828901611ad8565b935050606086013567ffffffffffffffff811115611e7c57611e7b61182e565b5b611e8888828901611ad8565b925050608086013567ffffffffffffffff811115611ea957611ea861182e565b5b611eb588828901611ad8565b9150509295509295909350565b7f4e487b7100000000000000000000000000000000000000000000000000000000600052602260045260246000fd5b60006002820490506001821680611f0957607f821691505b602082108103611f1c57611f1b611ec2565b5b50919050565b7f596f75206861766520616c726561647920766f74656400000000000000000000600082015250565b6000611f58601683611897565b9150611f6382611f22565b602082019050919050565b60006020820190508181036000830152611f8781611f4b565b9050919050565b7f596f752068617665206e6f20726967687420746f20766f746500000000000000600082015250565b6000611fc4601983611897565b9150611fcf82611f8e565b602082019050919050565b60006020820190508181036000830152611ff381611fb7565b9050919050565b7f4e487b7100000000000000000000000000000000000000000000000000000000600052601160045260246000fd5b6000612034826116d9565b915061203f836116d9565b925082820190508082111561205757612056611ffa565b5b92915050565b7f4f6e6c79206f7267616e697a65722063616e2063726561746520766f74657273600082015250565b6000612093602083611897565b915061209e8261205d565b602082019050919050565b600060208201905081810360008301526120c281612086565b9050919050565b7f566f74657220616c726561647920616c6c6f7765640000000000000000000000600082015250565b60006120ff601583611897565b915061210a826120c9565b602082019050919050565b6000602082019050818103600083015261212e816120f2565b9050919050565b60008190508160005260206000209050919050565b60006020601f8301049050919050565b600082821b905092915050565b6000600883026121977fffffffffffffffffffffffffffffffffffffffffffffffffffffffffffffffff8261215a565b6121a1868361215a565b95508019841693508086168417925050509392505050565b6000819050919050565b60006121de6121d96121d4846116d9565b6121b9565b6116d9565b9050919050565b6000819050919050565b6121f8836121c3565b61220c612204826121e5565b848454612167565b825550505050565b600090565b612221612214565b61222c8184846121ef565b505050565b5b8181101561225057612245600082612219565b600181019050612232565b5050565b601f8211156122955761226681612135565b61226f8461214a565b8101602085101561227e578190505b61229261228a8561214a565b830182612231565b50505b505050565b600082821c905092915050565b60006122b86000198460080261229a565b1980831691505092915050565b60006122d183836122a7565b9150826002028217905092915050565b6122ea8261188c565b67ffffffffffffffff811115612303576123026119db565b5b61230d8254611ef1565b612318828285612254565b600060209050601f83116001811461234b5760008415612339578287015190505b61234385826122c5565b8655506123ab565b601f19841661235986612135565b60005b828110156123815784890151825560018201915060208501945060208101905061235c565b8683101561239e578489015161239a601f8916826122a7565b8355505b6001600288020188555050505b505050505050565b6000819050919050565b60006123d86123d36123ce846123b3565b6121b9565b6116d9565b9050919050565b6123e8816123bd565b82525050565b6000819050919050565b600061241361240e612409846123ee565b6121b9565b6116d9565b9050919050565b612423816123f8565b82525050565b600060e08201905061243e600083018a6123df565b61244b602083018961241a565b818103604083015261245d81886118e3565b9050818103606083015261247181876118e3565b9050612480608083018661191c565b61248d60a0830185611cb1565b81810360c083015261249f81846118e3565b905098975050505050505050565b7f4f6e6c79204f7267616e697a65722063616e206372656174652063616e64696460008201527f6174657300000000000000000000000000000000000000000000000000000000602082015250565b6000612509602483611897565b9150612514826124ad565b604082019050919050565b60006020820190508181036000830152612538816124fc565b9050919050565b600060c082019050612554600083018961241a565b818103602083015261256681886118e3565b9050818103604083015261257a81876118e3565b9050818103606083015261258e81866118e3565b905061259d608083018561191c565b81810360a08301526125af81846118e3565b905097965050505050505056fea2646970667358221220a5cc41f45393405a0c7d7ee367056d28b4b262061b346df7ea8a2e7613fef99064736f6c63430008180033","opcodes":"PUSH1 0x80 PUSH1 0x40 MSTORE CALLVALUE DUP1 ISZERO PUSH2 0x10 JUMPI PUSH1 0x0 DUP1 REVERT JUMPDEST POP CALLER PUSH1 0x2 PUSH1 0x0 PUSH2 0x100 EXP DUP2 SLOAD DUP2 PUSH20 0xFFFFFFFFFFFFFFFFFFFFFFFFFFFFFFFFFFFFFFFF MUL NOT AND SWAP1 DUP4 PUSH20 0xFFFFFFFFFFFFFFFFFFFFFFFFFFFFFFFFFFFFFFFF AND MUL OR SWAP1 SSTORE POP PUSH2 0x25F2 DUP1 PUSH2 0x61 PUSH1 0x0 CODECOPY PUSH1 0x0 RETURN INVALID PUSH1 0x80 PUSH1 0x40 MSTORE CALLVALUE DUP1 ISZERO PUSH2 0x10 JUMPI PUSH1 0x0 DUP1 REVERT JUMPDEST POP PUSH1 0x4 CALLDATASIZE LT PUSH2 0x100 JUMPI PUSH1 0x0 CALLDATALOAD PUSH1 0xE0 SHR DUP1 PUSH4 0x8E945685 GT PUSH2 0x97 JUMPI DUP1 PUSH4 0xC91EC712 GT PUSH2 0x66 JUMPI DUP1 PUSH4 0xC91EC712 EQ PUSH2 0x2DC JUMPI DUP1 PUSH4 0xD55D73C5 EQ PUSH2 0x2F8 JUMPI DUP1 PUSH4 0xDD0E2373 EQ PUSH2 0x328 JUMPI DUP1 PUSH4 0xF7522A83 EQ PUSH2 0x358 JUMPI PUSH2 0x100 JUMP JUMPDEST DUP1 PUSH4 0x8E945685 EQ PUSH2 0x233 JUMPI DUP1 PUSH4 0x8FB4CD80 EQ PUSH2 0x251 JUMPI DUP1 PUSH4 0xA3EC138D EQ PUSH2 0x287 JUMPI DUP1 PUSH4 0xB28D92AE EQ PUSH2 0x2BE JUMPI PUSH2 0x100 JUMP JUMPDEST DUP1 PUSH4 0x6DD7D8EA GT PUSH2 0xD3 JUMPI DUP1 PUSH4 0x6DD7D8EA EQ PUSH2 0x195 JUMPI DUP1 PUSH4 0x77A3F3D6 EQ PUSH2 0x1B1 JUMPI DUP1 PUSH4 0x7831FFB3 EQ PUSH2 0x1CD JUMPI DUP1 PUSH4 0x8AB66A90 EQ PUSH2 0x1FD JUMPI PUSH2 0x100 JUMP JUMPDEST DUP1 PUSH4 0x5AD45A4 EQ PUSH2 0x105 JUMPI DUP1 PUSH4 0x6A49FCE EQ PUSH2 0x123 JUMPI DUP1 PUSH4 0x2A466AC7 EQ PUSH2 0x141 JUMPI DUP1 PUSH4 0x5CC48AA7 EQ PUSH2 0x177 JUMPI JUMPDEST PUSH1 0x0 DUP1 REVERT JUMPDEST PUSH2 0x10D PUSH2 0x376 JUMP JUMPDEST PUSH1 0x40 MLOAD PUSH2 0x11A SWAP2 SWAP1 PUSH2 0x16F2 JUMP JUMPDEST PUSH1 0x40 MLOAD DUP1 SWAP2 SUB SWAP1 RETURN JUMPDEST PUSH2 0x12B PUSH2 0x383 JUMP JUMPDEST PUSH1 0x40 MLOAD PUSH2 0x138 SWAP2 SWAP1 PUSH2 0x17FD JUMP JUMPDEST PUSH1 0x40 MLOAD DUP1 SWAP2 SUB SWAP1 RETURN JUMPDEST PUSH2 0x15B PUSH1 0x4 DUP1 CALLDATASIZE SUB DUP2 ADD SWAP1 PUSH2 0x156 SWAP2 SWAP1 PUSH2 0x185F JUMP JUMPDEST PUSH2 0x411 JUMP JUMPDEST PUSH1 0x40 MLOAD PUSH2 0x16E SWAP8 SWAP7 SWAP6 SWAP5 SWAP4 SWAP3 SWAP2 SWAP1 PUSH2 0x192B JUMP JUMPDEST PUSH1 0x40 MLOAD DUP1 SWAP2 SUB SWAP1 RETURN JUMPDEST PUSH2 0x17F PUSH2 0x6E9 JUMP JUMPDEST PUSH1 0x40 MLOAD PUSH2 0x18C SWAP2 SWAP1 PUSH2 0x19B6 JUMP JUMPDEST PUSH1 0x40 MLOAD DUP1 SWAP2 SUB SWAP1 RETURN JUMPDEST PUSH2 0x1AF PUSH1 0x4 DUP1 CALLDATASIZE SUB DUP2 ADD SWAP1 PUSH2 0x1AA SWAP2 SWAP1 PUSH2 0x185F JUMP JUMPDEST PUSH2 0x70F JUMP JUMPDEST STOP JUMPDEST PUSH2 0x1CB PUSH1 0x4 DUP1 CALLDATASIZE SUB DUP2 ADD SWAP1 PUSH2 0x1C6 SWAP2 SWAP1 PUSH2 0x1B06 JUMP JUMPDEST PUSH2 0x917 JUMP JUMPDEST STOP JUMPDEST PUSH2 0x1E7 PUSH1 0x4 DUP1 CALLDATASIZE SUB DUP2 ADD SWAP1 PUSH2 0x1E2 SWAP2 SWAP1 PUSH2 0x1BED JUMP JUMPDEST PUSH2 0xBAE JUMP JUMPDEST PUSH1 0x40 MLOAD PUSH2 0x1F4 SWAP2 SWAP1 PUSH2 0x19B6 JUMP JUMPDEST PUSH1 0x40 MLOAD DUP1 SWAP2 SUB SWAP1 RETURN JUMPDEST PUSH2 0x217 PUSH1 0x4 DUP1 CALLDATASIZE SUB DUP2 ADD SWAP1 PUSH2 0x212 SWAP2 SWAP1 PUSH2 0x185F JUMP JUMPDEST PUSH2 0xBED JUMP JUMPDEST PUSH1 0x40 MLOAD PUSH2 0x22A SWAP8 SWAP7 SWAP6 SWAP5 SWAP4 SWAP3 SWAP2 SWAP1 PUSH2 0x1C1A JUMP JUMPDEST PUSH1 0x40 MLOAD DUP1 SWAP2 SUB SWAP1 RETURN JUMPDEST PUSH2 0x23B PUSH2 0xE6F JUMP JUMPDEST PUSH1 0x40 MLOAD PUSH2 0x248 SWAP2 SWAP1 PUSH2 0x17FD JUMP JUMPDEST PUSH1 0x40 MLOAD DUP1 SWAP2 SUB SWAP1 RETURN JUMPDEST PUSH2 0x26B PUSH1 0x4 DUP1 CALLDATASIZE SUB DUP2 ADD SWAP1 PUSH2 0x266 SWAP2 SWAP1 PUSH2 0x185F JUMP JUMPDEST PUSH2 0xEFD JUMP JUMPDEST PUSH1 0x40 MLOAD PUSH2 0x27E SWAP8 SWAP7 SWAP6 SWAP5 SWAP4 SWAP3 SWAP2 SWAP1 PUSH2 0x1CC0 JUMP JUMPDEST PUSH1 0x40 MLOAD DUP1 SWAP2 SUB SWAP1 RETURN JUMPDEST PUSH2 0x2A1 PUSH1 0x4 DUP1 CALLDATASIZE SUB DUP2 ADD SWAP1 PUSH2 0x29C SWAP2 SWAP1 PUSH2 0x185F JUMP JUMPDEST PUSH2 0x1157 JUMP JUMPDEST PUSH1 0x40 MLOAD PUSH2 0x2B5 SWAP9 SWAP8 SWAP7 SWAP6 SWAP5 SWAP4 SWAP3 SWAP2 SWAP1 PUSH2 0x1D44 JUMP JUMPDEST PUSH1 0x40 MLOAD DUP1 SWAP2 SUB SWAP1 RETURN JUMPDEST PUSH2 0x2C6 PUSH2 0x1364 JUMP JUMPDEST PUSH1 0x40 MLOAD PUSH2 0x2D3 SWAP2 SWAP1 PUSH2 0x17FD JUMP JUMPDEST PUSH1 0x40 MLOAD DUP1 SWAP2 SUB SWAP1 RETURN JUMPDEST PUSH2 0x2F6 PUSH1 0x4 DUP1 CALLDATASIZE SUB DUP2 ADD SWAP1 PUSH2 0x2F1 SWAP2 SWAP1 PUSH2 0x1DD7 JUMP JUMPDEST PUSH2 0x13F2 JUMP JUMPDEST STOP JUMPDEST PUSH2 0x312 PUSH1 0x4 DUP1 CALLDATASIZE SUB DUP2 ADD SWAP1 PUSH2 0x30D SWAP2 SWAP1 PUSH2 0x1BED JUMP JUMPDEST PUSH2 0x162A JUMP JUMPDEST PUSH1 0x40 MLOAD PUSH2 0x31F SWAP2 SWAP1 PUSH2 0x19B6 JUMP JUMPDEST PUSH1 0x40 MLOAD DUP1 SWAP2 SUB SWAP1 RETURN JUMPDEST PUSH2 0x342 PUSH1 0x4 DUP1 CALLDATASIZE SUB DUP2 ADD SWAP1 PUSH2 0x33D SWAP2 SWAP1 PUSH2 0x1BED JUMP JUMPDEST PUSH2 0x1669 JUMP JUMPDEST PUSH1 0x40 MLOAD PUSH2 0x34F SWAP2 SWAP1 PUSH2 0x19B6 JUMP JUMPDEST PUSH1 0x40 MLOAD DUP1 SWAP2 SUB SWAP1 RETURN JUMPDEST PUSH2 0x360 PUSH2 0x16A8 JUMP JUMPDEST PUSH1 0x40 MLOAD PUSH2 0x36D SWAP2 SWAP1 PUSH2 0x16F2 JUMP JUMPDEST PUSH1 0x40 MLOAD DUP1 SWAP2 SUB SWAP1 RETURN JUMPDEST PUSH1 0x0 PUSH1 0x6 DUP1 SLOAD SWAP1 POP SWAP1 POP SWAP1 JUMP JUMPDEST PUSH1 0x60 PUSH1 0x3 DUP1 SLOAD DUP1 PUSH1 0x20 MUL PUSH1 0x20 ADD PUSH1 0x40 MLOAD SWAP1 DUP2 ADD PUSH1 0x40 MSTORE DUP1 SWAP3 SWAP2 SWAP1 DUP2 DUP2 MSTORE PUSH1 0x20 ADD DUP3 DUP1 SLOAD DUP1 ISZERO PUSH2 0x407 JUMPI PUSH1 0x20 MUL DUP3 ADD SWAP2 SWAP1 PUSH1 0x0 MSTORE PUSH1 0x20 PUSH1 0x0 KECCAK256 SWAP1 JUMPDEST DUP2 PUSH1 0x0 SWAP1 SLOAD SWAP1 PUSH2 0x100 EXP SWAP1 DIV PUSH20 0xFFFFFFFFFFFFFFFFFFFFFFFFFFFFFFFFFFFFFFFF AND PUSH20 0xFFFFFFFFFFFFFFFFFFFFFFFFFFFFFFFFFFFFFFFF AND DUP2 MSTORE PUSH1 0x20 ADD SWAP1 PUSH1 0x1 ADD SWAP1 DUP1 DUP4 GT PUSH2 0x3BD JUMPI JUMPDEST POP POP POP POP POP SWAP1 POP SWAP1 JUMP JUMPDEST PUSH1 0x60 DUP1 PUSH1 0x0 PUSH1 0x60 PUSH1 0x0 PUSH1 0x60 PUSH1 0x0 DUP1 PUSH1 0x4 PUSH1 0x0 DUP11 PUSH20 0xFFFFFFFFFFFFFFFFFFFFFFFFFFFFFFFFFFFFFFFF AND PUSH20 0xFFFFFFFFFFFFFFFFFFFFFFFFFFFFFFFFFFFFFFFF AND DUP2 MSTORE PUSH1 0x20 ADD SWAP1 DUP2 MSTORE PUSH1 0x20 ADD PUSH1 0x0 KECCAK256 SWAP1 POP DUP1 PUSH1 0x2 ADD DUP2 PUSH1 0x3 ADD DUP3 PUSH1 0x0 ADD SLOAD DUP4 PUSH1 0x4 ADD DUP5 PUSH1 0x1 ADD SLOAD DUP6 PUSH1 0x6 ADD DUP7 PUSH1 0x5 ADD PUSH1 0x0 SWAP1 SLOAD SWAP1 PUSH2 0x100 EXP SWAP1 DIV PUSH20 0xFFFFFFFFFFFFFFFFFFFFFFFFFFFFFFFFFFFFFFFF AND DUP7 DUP1 SLOAD PUSH2 0x4AB SWAP1 PUSH2 0x1EF1 JUMP JUMPDEST DUP1 PUSH1 0x1F ADD PUSH1 0x20 DUP1 SWAP2 DIV MUL PUSH1 0x20 ADD PUSH1 0x40 MLOAD SWAP1 DUP2 ADD PUSH1 0x40 MSTORE DUP1 SWAP3 SWAP2 SWAP1 DUP2 DUP2 MSTORE PUSH1 0x20 ADD DUP3 DUP1 SLOAD PUSH2 0x4D7 SWAP1 PUSH2 0x1EF1 JUMP JUMPDEST DUP1 ISZERO PUSH2 0x524 JUMPI DUP1 PUSH1 0x1F LT PUSH2 0x4F9 JUMPI PUSH2 0x100 DUP1 DUP4 SLOAD DIV MUL DUP4 MSTORE SWAP2 PUSH1 0x20 ADD SWAP2 PUSH2 0x524 JUMP JUMPDEST DUP3 ADD SWAP2 SWAP1 PUSH1 0x0 MSTORE PUSH1 0x20 PUSH1 0x0 KECCAK256 SWAP1 JUMPDEST DUP2 SLOAD DUP2 MSTORE SWAP1 PUSH1 0x1 ADD SWAP1 PUSH1 0x20 ADD DUP1 DUP4 GT PUSH2 0x507 JUMPI DUP3 SWAP1 SUB PUSH1 0x1F AND DUP3 ADD SWAP2 JUMPDEST POP POP POP POP POP SWAP7 POP DUP6 DUP1 SLOAD PUSH2 0x537 SWAP1 PUSH2 0x1EF1 JUMP JUMPDEST DUP1 PUSH1 0x1F ADD PUSH1 0x20 DUP1 SWAP2 DIV MUL PUSH1 0x20 ADD PUSH1 0x40 MLOAD SWAP1 DUP2 ADD PUSH1 0x40 MSTORE DUP1 SWAP3 SWAP2 SWAP1 DUP2 DUP2 MSTORE PUSH1 0x20 ADD DUP3 DUP1 SLOAD PUSH2 0x563 SWAP1 PUSH2 0x1EF1 JUMP JUMPDEST DUP1 ISZERO PUSH2 0x5B0 JUMPI DUP1 PUSH1 0x1F LT PUSH2 0x585 JUMPI PUSH2 0x100 DUP1 DUP4 SLOAD DIV MUL DUP4 MSTORE SWAP2 PUSH1 0x20 ADD SWAP2 PUSH2 0x5B0 JUMP JUMPDEST DUP3 ADD SWAP2 SWAP1 PUSH1 0x0 MSTORE PUSH1 0x20 PUSH1 0x0 KECCAK256 SWAP1 JUMPDEST DUP2 SLOAD DUP2 MSTORE SWAP1 PUSH1 0x1 ADD SWAP1 PUSH1 0x20 ADD DUP1 DUP4 GT PUSH2 0x593 JUMPI DUP3 SWAP1 SUB PUSH1 0x1F AND DUP3 ADD SWAP2 JUMPDEST POP POP POP POP POP SWAP6 POP DUP4 DUP1 SLOAD PUSH2 0x5C3 SWAP1 PUSH2 0x1EF1 JUMP JUMPDEST DUP1 PUSH1 0x1F ADD PUSH1 0x20 DUP1 SWAP2 DIV MUL PUSH1 0x20 ADD PUSH1 0x40 MLOAD SWAP1 DUP2 ADD PUSH1 0x40 MSTORE DUP1 SWAP3 SWAP2 SWAP1 DUP2 DUP2 MSTORE PUSH1 0x20 ADD DUP3 DUP1 SLOAD PUSH2 0x5EF SWAP1 PUSH2 0x1EF1 JUMP JUMPDEST DUP1 ISZERO PUSH2 0x63C JUMPI DUP1 PUSH1 0x1F LT PUSH2 0x611 JUMPI PUSH2 0x100 DUP1 DUP4 SLOAD DIV MUL DUP4 MSTORE SWAP2 PUSH1 0x20 ADD SWAP2 PUSH2 0x63C JUMP JUMPDEST DUP3 ADD SWAP2 SWAP1 PUSH1 0x0 MSTORE PUSH1 0x20 PUSH1 0x0 KECCAK256 SWAP1 JUMPDEST DUP2 SLOAD DUP2 MSTORE SWAP1 PUSH1 0x1 ADD SWAP1 PUSH1 0x20 ADD DUP1 DUP4 GT PUSH2 0x61F JUMPI DUP3 SWAP1 SUB PUSH1 0x1F AND DUP3 ADD SWAP2 JUMPDEST POP POP POP POP POP SWAP4 POP DUP2 DUP1 SLOAD PUSH2 0x64F SWAP1 PUSH2 0x1EF1 JUMP JUMPDEST DUP1 PUSH1 0x1F ADD PUSH1 0x20 DUP1 SWAP2 DIV MUL PUSH1 0x20 ADD PUSH1 0x40 MLOAD SWAP1 DUP2 ADD PUSH1 0x40 MSTORE DUP1 SWAP3 SWAP2 SWAP1 DUP2 DUP2 MSTORE PUSH1 0x20 ADD DUP3 DUP1 SLOAD PUSH2 0x67B SWAP1 PUSH2 0x1EF1 JUMP JUMPDEST DUP1 ISZERO PUSH2 0x6C8 JUMPI DUP1 PUSH1 0x1F LT PUSH2 0x69D JUMPI PUSH2 0x100 DUP1 DUP4 SLOAD DIV MUL DUP4 MSTORE SWAP2 PUSH1 0x20 ADD SWAP2 PUSH2 0x6C8 JUMP JUMPDEST DUP3 ADD SWAP2 SWAP1 PUSH1 0x0 MSTORE PUSH1 0x20 PUSH1 0x0 KECCAK256 SWAP1 JUMPDEST DUP2 SLOAD DUP2 MSTORE SWAP1 PUSH1 0x1 ADD SWAP1 PUSH1 0x20 ADD DUP1 DUP4 GT PUSH2 0x6AB JUMPI DUP3 SWAP1 SUB PUSH1 0x1F AND DUP3 ADD SWAP2 JUMPDEST POP POP POP POP POP SWAP2 POP SWAP8 POP SWAP8 POP SWAP8 POP SWAP8 POP SWAP8 POP SWAP8 POP SWAP8 POP POP SWAP2 SWAP4 SWAP6 SWAP8 SWAP1 SWAP3 SWAP5 SWAP7 POP JUMP JUMPDEST PUSH1 0x2 PUSH1 0x0 SWAP1 SLOAD SWAP1 PUSH2 0x100 EXP SWAP1 DIV PUSH20 0xFFFFFFFFFFFFFFFFFFFFFFFFFFFFFFFFFFFFFFFF AND DUP2 JUMP JUMPDEST PUSH1 0x0 PUSH1 0x7 PUSH1 0x0 CALLER PUSH20 0xFFFFFFFFFFFFFFFFFFFFFFFFFFFFFFFFFFFFFFFF AND PUSH20 0xFFFFFFFFFFFFFFFFFFFFFFFFFFFFFFFFFFFFFFFF AND DUP2 MSTORE PUSH1 0x20 ADD SWAP1 DUP2 MSTORE PUSH1 0x20 ADD PUSH1 0x0 KECCAK256 SWAP1 POP DUP1 PUSH1 0x5 ADD PUSH1 0x14 SWAP1 SLOAD SWAP1 PUSH2 0x100 EXP SWAP1 DIV PUSH1 0xFF AND ISZERO PUSH2 0x7A4 JUMPI PUSH1 0x40 MLOAD PUSH32 0x8C379A000000000000000000000000000000000000000000000000000000000 DUP2 MSTORE PUSH1 0x4 ADD PUSH2 0x79B SWAP1 PUSH2 0x1F6E JUMP JUMPDEST PUSH1 0x40 MLOAD DUP1 SWAP2 SUB SWAP1 REVERT JUMPDEST PUSH1 0x0 DUP2 PUSH1 0x1 ADD SLOAD SUB PUSH2 0x7EB JUMPI PUSH1 0x40 MLOAD PUSH32 0x8C379A000000000000000000000000000000000000000000000000000000000 DUP2 MSTORE PUSH1 0x4 ADD PUSH2 0x7E2 SWAP1 PUSH2 0x1FDA JUMP JUMPDEST PUSH1 0x40 MLOAD DUP1 SWAP2 SUB SWAP1 REVERT JUMPDEST PUSH1 0x1 DUP2 PUSH1 0x5 ADD PUSH1 0x14 PUSH2 0x100 EXP DUP2 SLOAD DUP2 PUSH1 0xFF MUL NOT AND SWAP1 DUP4 ISZERO ISZERO MUL OR SWAP1 SSTORE POP PUSH1 0x4 PUSH1 0x0 DUP4 PUSH20 0xFFFFFFFFFFFFFFFFFFFFFFFFFFFFFFFFFFFFFFFF AND PUSH20 0xFFFFFFFFFFFFFFFFFFFFFFFFFFFFFFFFFFFFFFFF AND DUP2 MSTORE PUSH1 0x20 ADD SWAP1 DUP2 MSTORE PUSH1 0x20 ADD PUSH1 0x0 KECCAK256 PUSH1 0x0 ADD SLOAD DUP2 PUSH1 0x2 ADD DUP2 SWAP1 SSTORE POP PUSH1 0x5 CALLER SWAP1 DUP1 PUSH1 0x1 DUP2 SLOAD ADD DUP1 DUP3 SSTORE DUP1 SWAP2 POP POP PUSH1 0x1 SWAP1 SUB SWAP1 PUSH1 0x0 MSTORE PUSH1 0x20 PUSH1 0x0 KECCAK256 ADD PUSH1 0x0 SWAP1 SWAP2 SWAP1 SWAP2 SWAP1 SWAP2 PUSH2 0x100 EXP DUP2 SLOAD DUP2 PUSH20 0xFFFFFFFFFFFFFFFFFFFFFFFFFFFFFFFFFFFFFFFF MUL NOT AND SWAP1 DUP4 PUSH20 0xFFFFFFFFFFFFFFFFFFFFFFFFFFFFFFFFFFFFFFFF AND MUL OR SWAP1 SSTORE POP DUP1 PUSH1 0x1 ADD SLOAD PUSH1 0x4 PUSH1 0x0 DUP5 PUSH20 0xFFFFFFFFFFFFFFFFFFFFFFFFFFFFFFFFFFFFFFFF AND PUSH20 0xFFFFFFFFFFFFFFFFFFFFFFFFFFFFFFFFFFFFFFFF AND DUP2 MSTORE PUSH1 0x20 ADD SWAP1 DUP2 MSTORE PUSH1 0x20 ADD PUSH1 0x0 KECCAK256 PUSH1 0x1 ADD PUSH1 0x0 DUP3 DUP3 SLOAD PUSH2 0x90C SWAP2 SWAP1 PUSH2 0x2029 JUMP JUMPDEST SWAP3 POP POP DUP2 SWAP1 SSTORE POP POP POP JUMP JUMPDEST CALLER PUSH20 0xFFFFFFFFFFFFFFFFFFFFFFFFFFFFFFFFFFFFFFFF AND PUSH1 0x2 PUSH1 0x0 SWAP1 SLOAD SWAP1 PUSH2 0x100 EXP SWAP1 DIV PUSH20 0xFFFFFFFFFFFFFFFFFFFFFFFFFFFFFFFFFFFFFFFF AND PUSH20 0xFFFFFFFFFFFFFFFFFFFFFFFFFFFFFFFFFFFFFFFF AND EQ PUSH2 0x9A7 JUMPI PUSH1 0x40 MLOAD PUSH32 0x8C379A000000000000000000000000000000000000000000000000000000000 DUP2 MSTORE PUSH1 0x4 ADD PUSH2 0x99E SWAP1 PUSH2 0x20A9 JUMP JUMPDEST PUSH1 0x40 MLOAD DUP1 SWAP2 SUB SWAP1 REVERT JUMPDEST PUSH2 0x9B1 PUSH1 0x0 PUSH2 0x16B5 JUMP JUMPDEST PUSH1 0x0 PUSH2 0x9BD PUSH1 0x0 PUSH2 0x16CB JUMP JUMPDEST SWAP1 POP PUSH1 0x0 PUSH1 0x7 PUSH1 0x0 DUP8 PUSH20 0xFFFFFFFFFFFFFFFFFFFFFFFFFFFFFFFFFFFFFFFF AND PUSH20 0xFFFFFFFFFFFFFFFFFFFFFFFFFFFFFFFFFFFFFFFF AND DUP2 MSTORE PUSH1 0x20 ADD SWAP1 DUP2 MSTORE PUSH1 0x20 ADD PUSH1 0x0 KECCAK256 SWAP1 POP PUSH1 0x0 DUP2 PUSH1 0x1 ADD SLOAD EQ PUSH2 0xA49 JUMPI PUSH1 0x40 MLOAD PUSH32 0x8C379A000000000000000000000000000000000000000000000000000000000 DUP2 MSTORE PUSH1 0x4 ADD PUSH2 0xA40 SWAP1 PUSH2 0x2115 JUMP JUMPDEST PUSH1 0x40 MLOAD DUP1 SWAP2 SUB SWAP1 REVERT JUMPDEST DUP2 DUP2 PUSH1 0x0 ADD DUP2 SWAP1 SSTORE POP PUSH1 0x1 DUP2 PUSH1 0x1 ADD DUP2 SWAP1 SSTORE POP DUP5 DUP2 PUSH1 0x3 ADD SWAP1 DUP2 PUSH2 0xA6D SWAP2 SWAP1 PUSH2 0x22E1 JUMP JUMPDEST POP DUP4 DUP2 PUSH1 0x4 ADD SWAP1 DUP2 PUSH2 0xA7F SWAP2 SWAP1 PUSH2 0x22E1 JUMP JUMPDEST POP DUP6 DUP2 PUSH1 0x5 ADD PUSH1 0x0 PUSH2 0x100 EXP DUP2 SLOAD DUP2 PUSH20 0xFFFFFFFFFFFFFFFFFFFFFFFFFFFFFFFFFFFFFFFF MUL NOT AND SWAP1 DUP4 PUSH20 0xFFFFFFFFFFFFFFFFFFFFFFFFFFFFFFFFFFFFFFFF AND MUL OR SWAP1 SSTORE POP PUSH1 0x0 DUP2 PUSH1 0x2 ADD DUP2 SWAP1 SSTORE POP PUSH1 0x0 DUP2 PUSH1 0x5 ADD PUSH1 0x14 PUSH2 0x100 EXP DUP2 SLOAD DUP2 PUSH1 0xFF MUL NOT AND SWAP1 DUP4 ISZERO ISZERO MUL OR SWAP1 SSTORE POP DUP3 DUP2 PUSH1 0x6 ADD SWAP1 DUP2 PUSH2 0xAFB SWAP2 SWAP1 PUSH2 0x22E1 JUMP JUMPDEST POP PUSH1 0x6 DUP7 SWAP1 DUP1 PUSH1 0x1 DUP2 SLOAD ADD DUP1 DUP3 SSTORE DUP1 SWAP2 POP POP PUSH1 0x1 SWAP1 SUB SWAP1 PUSH1 0x0 MSTORE PUSH1 0x20 PUSH1 0x0 KECCAK256 ADD PUSH1 0x0 SWAP1 SWAP2 SWAP1 SWAP2 SWAP1 SWAP2 PUSH2 0x100 EXP DUP2 SLOAD DUP2 PUSH20 0xFFFFFFFFFFFFFFFFFFFFFFFFFFFFFFFFFFFFFFFF MUL NOT AND SWAP1 DUP4 PUSH20 0xFFFFFFFFFFFFFFFFFFFFFFFFFFFFFFFFFFFFFFFF AND MUL OR SWAP1 SSTORE POP DUP2 PUSH32 0x6012B648EA9572515D85C8E1FE8564844AE1F444101E5D111A6D2DA846CBCDB5 PUSH1 0x1 PUSH1 0x0 DUP9 DUP9 DUP12 PUSH1 0x0 DUP11 PUSH1 0x40 MLOAD PUSH2 0xB9E SWAP8 SWAP7 SWAP6 SWAP5 SWAP4 SWAP3 SWAP2 SWAP1 PUSH2 0x2429 JUMP JUMPDEST PUSH1 0x40 MLOAD DUP1 SWAP2 SUB SWAP1 LOG2 POP POP POP POP POP POP JUMP JUMPDEST PUSH1 0x5 DUP2 DUP2 SLOAD DUP2 LT PUSH2 0xBBE JUMPI PUSH1 0x0 DUP1 REVERT JUMPDEST SWAP1 PUSH1 0x0 MSTORE PUSH1 0x20 PUSH1 0x0 KECCAK256 ADD PUSH1 0x0 SWAP2 POP SLOAD SWAP1 PUSH2 0x100 EXP SWAP1 DIV PUSH20 0xFFFFFFFFFFFFFFFFFFFFFFFFFFFFFFFFFFFFFFFF AND DUP2 JUMP JUMPDEST PUSH1 0x4 PUSH1 0x20 MSTORE DUP1 PUSH1 0x0 MSTORE PUSH1 0x40 PUSH1 0x0 KECCAK256 PUSH1 0x0 SWAP2 POP SWAP1 POP DUP1 PUSH1 0x0 ADD SLOAD SWAP1 DUP1 PUSH1 0x1 ADD SLOAD SWAP1 DUP1 PUSH1 0x2 ADD DUP1 SLOAD PUSH2 0xC1C SWAP1 PUSH2 0x1EF1 JUMP JUMPDEST DUP1 PUSH1 0x1F ADD PUSH1 0x20 DUP1 SWAP2 DIV MUL PUSH1 0x20 ADD PUSH1 0x40 MLOAD SWAP1 DUP2 ADD PUSH1 0x40 MSTORE DUP1 SWAP3 SWAP2 SWAP1 DUP2 DUP2 MSTORE PUSH1 0x20 ADD DUP3 DUP1 SLOAD PUSH2 0xC48 SWAP1 PUSH2 0x1EF1 JUMP JUMPDEST DUP1 ISZERO PUSH2 0xC95 JUMPI DUP1 PUSH1 0x1F LT PUSH2 0xC6A JUMPI PUSH2 0x100 DUP1 DUP4 SLOAD DIV MUL DUP4 MSTORE SWAP2 PUSH1 0x20 ADD SWAP2 PUSH2 0xC95 JUMP JUMPDEST DUP3 ADD SWAP2 SWAP1 PUSH1 0x0 MSTORE PUSH1 0x20 PUSH1 0x0 KECCAK256 SWAP1 JUMPDEST DUP2 SLOAD DUP2 MSTORE SWAP1 PUSH1 0x1 ADD SWAP1 PUSH1 0x20 ADD DUP1 DUP4 GT PUSH2 0xC78 JUMPI DUP3 SWAP1 SUB PUSH1 0x1F AND DUP3 ADD SWAP2 JUMPDEST POP POP POP POP POP SWAP1 DUP1 PUSH1 0x3 ADD DUP1 SLOAD PUSH2 0xCAA SWAP1 PUSH2 0x1EF1 JUMP JUMPDEST DUP1 PUSH1 0x1F ADD PUSH1 0x20 DUP1 SWAP2 DIV MUL PUSH1 0x20 ADD PUSH1 0x40 MLOAD SWAP1 DUP2 ADD PUSH1 0x40 MSTORE DUP1 SWAP3 SWAP2 SWAP1 DUP2 DUP2 MSTORE PUSH1 0x20 ADD DUP3 DUP1 SLOAD PUSH2 0xCD6 SWAP1 PUSH2 0x1EF1 JUMP JUMPDEST DUP1 ISZERO PUSH2 0xD23 JUMPI DUP1 PUSH1 0x1F LT PUSH2 0xCF8 JUMPI PUSH2 0x100 DUP1 DUP4 SLOAD DIV MUL DUP4 MSTORE SWAP2 PUSH1 0x20 ADD SWAP2 PUSH2 0xD23 JUMP JUMPDEST DUP3 ADD SWAP2 SWAP1 PUSH1 0x0 MSTORE PUSH1 0x20 PUSH1 0x0 KECCAK256 SWAP1 JUMPDEST DUP2 SLOAD DUP2 MSTORE SWAP1 PUSH1 0x1 ADD SWAP1 PUSH1 0x20 ADD DUP1 DUP4 GT PUSH2 0xD06 JUMPI DUP3 SWAP1 SUB PUSH1 0x1F AND DUP3 ADD SWAP2 JUMPDEST POP POP POP POP POP SWAP1 DUP1 PUSH1 0x4 ADD DUP1 SLOAD PUSH2 0xD38 SWAP1 PUSH2 0x1EF1 JUMP JUMPDEST DUP1 PUSH1 0x1F ADD PUSH1 0x20 DUP1 SWAP2 DIV MUL PUSH1 0x20 ADD PUSH1 0x40 MLOAD SWAP1 DUP2 ADD PUSH1 0x40 MSTORE DUP1 SWAP3 SWAP2 SWAP1 DUP2 DUP2 MSTORE PUSH1 0x20 ADD DUP3 DUP1 SLOAD PUSH2 0xD64 SWAP1 PUSH2 0x1EF1 JUMP JUMPDEST DUP1 ISZERO PUSH2 0xDB1 JUMPI DUP1 PUSH1 0x1F LT PUSH2 0xD86 JUMPI PUSH2 0x100 DUP1 DUP4 SLOAD DIV MUL DUP4 MSTORE SWAP2 PUSH1 0x20 ADD SWAP2 PUSH2 0xDB1 JUMP JUMPDEST DUP3 ADD SWAP2 SWAP1 PUSH1 0x0 MSTORE PUSH1 0x20 PUSH1 0x0 KECCAK256 SWAP1 JUMPDEST DUP2 SLOAD DUP2 MSTORE SWAP1 PUSH1 0x1 ADD SWAP1 PUSH1 0x20 ADD DUP1 DUP4 GT PUSH2 0xD94 JUMPI DUP3 SWAP1 SUB PUSH1 0x1F AND DUP3 ADD SWAP2 JUMPDEST POP POP POP POP POP SWAP1 DUP1 PUSH1 0x5 ADD PUSH1 0x0 SWAP1 SLOAD SWAP1 PUSH2 0x100 EXP SWAP1 DIV PUSH20 0xFFFFFFFFFFFFFFFFFFFFFFFFFFFFFFFFFFFFFFFF AND SWAP1 DUP1 PUSH1 0x6 ADD DUP1 SLOAD PUSH2 0xDEC SWAP1 PUSH2 0x1EF1 JUMP JUMPDEST DUP1 PUSH1 0x1F ADD PUSH1 0x20 DUP1 SWAP2 DIV MUL PUSH1 0x20 ADD PUSH1 0x40 MLOAD SWAP1 DUP2 ADD PUSH1 0x40 MSTORE DUP1 SWAP3 SWAP2 SWAP1 DUP2 DUP2 MSTORE PUSH1 0x20 ADD DUP3 DUP1 SLOAD PUSH2 0xE18 SWAP1 PUSH2 0x1EF1 JUMP JUMPDEST DUP1 ISZERO PUSH2 0xE65 JUMPI DUP1 PUSH1 0x1F LT PUSH2 0xE3A JUMPI PUSH2 0x100 DUP1 DUP4 SLOAD DIV MUL DUP4 MSTORE SWAP2 PUSH1 0x20 ADD SWAP2 PUSH2 0xE65 JUMP JUMPDEST DUP3 ADD SWAP2 SWAP1 PUSH1 0x0 MSTORE PUSH1 0x20 PUSH1 0x0 KECCAK256 SWAP1 JUMPDEST DUP2 SLOAD DUP2 MSTORE SWAP1 PUSH1 0x1 ADD SWAP1 PUSH1 0x20 ADD DUP1 DUP4 GT PUSH2 0xE48 JUMPI DUP3 SWAP1 SUB PUSH1 0x1F AND DUP3 ADD SWAP2 JUMPDEST POP POP POP POP POP SWAP1 POP DUP8 JUMP JUMPDEST PUSH1 0x60 PUSH1 0x5 DUP1 SLOAD DUP1 PUSH1 0x20 MUL PUSH1 0x20 ADD PUSH1 0x40 MLOAD SWAP1 DUP2 ADD PUSH1 0x40 MSTORE DUP1 SWAP3 SWAP2 SWAP1 DUP2 DUP2 MSTORE PUSH1 0x20 ADD DUP3 DUP1 SLOAD DUP1 ISZERO PUSH2 0xEF3 JUMPI PUSH1 0x20 MUL DUP3 ADD SWAP2 SWAP1 PUSH1 0x0 MSTORE PUSH1 0x20 PUSH1 0x0 KECCAK256 SWAP1 JUMPDEST DUP2 PUSH1 0x0 SWAP1 SLOAD SWAP1 PUSH2 0x100 EXP SWAP1 DIV PUSH20 0xFFFFFFFFFFFFFFFFFFFFFFFFFFFFFFFFFFFFFFFF AND PUSH20 0xFFFFFFFFFFFFFFFFFFFFFFFFFFFFFFFFFFFFFFFF AND DUP2 MSTORE PUSH1 0x20 ADD SWAP1 PUSH1 0x1 ADD SWAP1 DUP1 DUP4 GT PUSH2 0xEA9 JUMPI JUMPDEST POP POP POP POP POP SWAP1 POP SWAP1 JUMP JUMPDEST PUSH1 0x0 PUSH1 0x60 DUP1 PUSH1 0x0 PUSH1 0x60 PUSH1 0x0 DUP1 PUSH1 0x0 PUSH1 0x7 PUSH1 0x0 DUP11 PUSH20 0xFFFFFFFFFFFFFFFFFFFFFFFFFFFFFFFFFFFFFFFF AND PUSH20 0xFFFFFFFFFFFFFFFFFFFFFFFFFFFFFFFFFFFFFFFF AND DUP2 MSTORE PUSH1 0x20 ADD SWAP1 DUP2 MSTORE PUSH1 0x20 ADD PUSH1 0x0 KECCAK256 SWAP1 POP DUP1 PUSH1 0x0 ADD SLOAD DUP2 PUSH1 0x3 ADD DUP3 PUSH1 0x4 ADD DUP4 PUSH1 0x5 ADD PUSH1 0x0 SWAP1 SLOAD SWAP1 PUSH2 0x100 EXP SWAP1 DIV PUSH20 0xFFFFFFFFFFFFFFFFFFFFFFFFFFFFFFFFFFFFFFFF AND DUP5 PUSH1 0x6 ADD DUP6 PUSH1 0x1 ADD SLOAD DUP7 PUSH1 0x5 ADD PUSH1 0x14 SWAP1 SLOAD SWAP1 PUSH2 0x100 EXP SWAP1 DIV PUSH1 0xFF AND DUP6 DUP1 SLOAD PUSH2 0xFA5 SWAP1 PUSH2 0x1EF1 JUMP JUMPDEST DUP1 PUSH1 0x1F ADD PUSH1 0x20 DUP1 SWAP2 DIV MUL PUSH1 0x20 ADD PUSH1 0x40 MLOAD SWAP1 DUP2 ADD PUSH1 0x40 MSTORE DUP1 SWAP3 SWAP2 SWAP1 DUP2 DUP2 MSTORE PUSH1 0x20 ADD DUP3 DUP1 SLOAD PUSH2 0xFD1 SWAP1 PUSH2 0x1EF1 JUMP JUMPDEST DUP1 ISZERO PUSH2 0x101E JUMPI DUP1 PUSH1 0x1F LT PUSH2 0xFF3 JUMPI PUSH2 0x100 DUP1 DUP4 SLOAD DIV MUL DUP4 MSTORE SWAP2 PUSH1 0x20 ADD SWAP2 PUSH2 0x101E JUMP JUMPDEST DUP3 ADD SWAP2 SWAP1 PUSH1 0x0 MSTORE PUSH1 0x20 PUSH1 0x0 KECCAK256 SWAP1 JUMPDEST DUP2 SLOAD DUP2 MSTORE SWAP1 PUSH1 0x1 ADD SWAP1 PUSH1 0x20 ADD DUP1 DUP4 GT PUSH2 0x1001 JUMPI DUP3 SWAP1 SUB PUSH1 0x1F AND DUP3 ADD SWAP2 JUMPDEST POP POP POP POP POP SWAP6 POP DUP5 DUP1 SLOAD PUSH2 0x1031 SWAP1 PUSH2 0x1EF1 JUMP JUMPDEST DUP1 PUSH1 0x1F ADD PUSH1 0x20 DUP1 SWAP2 DIV MUL PUSH1 0x20 ADD PUSH1 0x40 MLOAD SWAP1 DUP2 ADD PUSH1 0x40 MSTORE DUP1 SWAP3 SWAP2 SWAP1 DUP2 DUP2 MSTORE PUSH1 0x20 ADD DUP3 DUP1 SLOAD PUSH2 0x105D SWAP1 PUSH2 0x1EF1 JUMP JUMPDEST DUP1 ISZERO PUSH2 0x10AA JUMPI DUP1 PUSH1 0x1F LT PUSH2 0x107F JUMPI PUSH2 0x100 DUP1 DUP4 SLOAD DIV MUL DUP4 MSTORE SWAP2 PUSH1 0x20 ADD SWAP2 PUSH2 0x10AA JUMP JUMPDEST DUP3 ADD SWAP2 SWAP1 PUSH1 0x0 MSTORE PUSH1 0x20 PUSH1 0x0 KECCAK256 SWAP1 JUMPDEST DUP2 SLOAD DUP2 MSTORE SWAP1 PUSH1 0x1 ADD SWAP1 PUSH1 0x20 ADD DUP1 DUP4 GT PUSH2 0x108D JUMPI DUP3 SWAP1 SUB PUSH1 0x1F AND DUP3 ADD SWAP2 JUMPDEST POP POP POP POP POP SWAP5 POP DUP3 DUP1 SLOAD PUSH2 0x10BD SWAP1 PUSH2 0x1EF1 JUMP JUMPDEST DUP1 PUSH1 0x1F ADD PUSH1 0x20 DUP1 SWAP2 DIV MUL PUSH1 0x20 ADD PUSH1 0x40 MLOAD SWAP1 DUP2 ADD PUSH1 0x40 MSTORE DUP1 SWAP3 SWAP2 SWAP1 DUP2 DUP2 MSTORE PUSH1 0x20 ADD DUP3 DUP1 SLOAD PUSH2 0x10E9 SWAP1 PUSH2 0x1EF1 JUMP JUMPDEST DUP1 ISZERO PUSH2 0x1136 JUMPI DUP1 PUSH1 0x1F LT PUSH2 0x110B JUMPI PUSH2 0x100 DUP1 DUP4 SLOAD DIV MUL DUP4 MSTORE SWAP2 PUSH1 0x20 ADD SWAP2 PUSH2 0x1136 JUMP JUMPDEST DUP3 ADD SWAP2 SWAP1 PUSH1 0x0 MSTORE PUSH1 0x20 PUSH1 0x0 KECCAK256 SWAP1 JUMPDEST DUP2 SLOAD DUP2 MSTORE SWAP1 PUSH1 0x1 ADD SWAP1 PUSH1 0x20 ADD DUP1 DUP4 GT PUSH2 0x1119 JUMPI DUP3 SWAP1 SUB PUSH1 0x1F AND DUP3 ADD SWAP2 JUMPDEST POP POP POP POP POP SWAP3 POP SWAP8 POP SWAP8 POP SWAP8 POP SWAP8 POP SWAP8 POP SWAP8 POP SWAP8 POP POP SWAP2 SWAP4 SWAP6 SWAP8 SWAP1 SWAP3 SWAP5 SWAP7 POP JUMP JUMPDEST PUSH1 0x7 PUSH1 0x20 MSTORE DUP1 PUSH1 0x0 MSTORE PUSH1 0x40 PUSH1 0x0 KECCAK256 PUSH1 0x0 SWAP2 POP SWAP1 POP DUP1 PUSH1 0x0 ADD SLOAD SWAP1 DUP1 PUSH1 0x1 ADD SLOAD SWAP1 DUP1 PUSH1 0x2 ADD SLOAD SWAP1 DUP1 PUSH1 0x3 ADD DUP1 SLOAD PUSH2 0x118C SWAP1 PUSH2 0x1EF1 JUMP JUMPDEST DUP1 PUSH1 0x1F ADD PUSH1 0x20 DUP1 SWAP2 DIV MUL PUSH1 0x20 ADD PUSH1 0x40 MLOAD SWAP1 DUP2 ADD PUSH1 0x40 MSTORE DUP1 SWAP3 SWAP2 SWAP1 DUP2 DUP2 MSTORE PUSH1 0x20 ADD DUP3 DUP1 SLOAD PUSH2 0x11B8 SWAP1 PUSH2 0x1EF1 JUMP JUMPDEST DUP1 ISZERO PUSH2 0x1205 JUMPI DUP1 PUSH1 0x1F LT PUSH2 0x11DA JUMPI PUSH2 0x100 DUP1 DUP4 SLOAD DIV MUL DUP4 MSTORE SWAP2 PUSH1 0x20 ADD SWAP2 PUSH2 0x1205 JUMP JUMPDEST DUP3 ADD SWAP2 SWAP1 PUSH1 0x0 MSTORE PUSH1 0x20 PUSH1 0x0 KECCAK256 SWAP1 JUMPDEST DUP2 SLOAD DUP2 MSTORE SWAP1 PUSH1 0x1 ADD SWAP1 PUSH1 0x20 ADD DUP1 DUP4 GT PUSH2 0x11E8 JUMPI DUP3 SWAP1 SUB PUSH1 0x1F AND DUP3 ADD SWAP2 JUMPDEST POP POP POP POP POP SWAP1 DUP1 PUSH1 0x4 ADD DUP1 SLOAD PUSH2 0x121A SWAP1 PUSH2 0x1EF1 JUMP JUMPDEST DUP1 PUSH1 0x1F ADD PUSH1 0x20 DUP1 SWAP2 DIV MUL PUSH1 0x20 ADD PUSH1 0x40 MLOAD SWAP1 DUP2 ADD PUSH1 0x40 MSTORE DUP1 SWAP3 SWAP2 SWAP1 DUP2 DUP2 MSTORE PUSH1 0x20 ADD DUP3 DUP1 SLOAD PUSH2 0x1246 SWAP1 PUSH2 0x1EF1 JUMP JUMPDEST DUP1 ISZERO PUSH2 0x1293 JUMPI DUP1 PUSH1 0x1F LT PUSH2 0x1268 JUMPI PUSH2 0x100 DUP1 DUP4 SLOAD DIV MUL DUP4 MSTORE SWAP2 PUSH1 0x20 ADD SWAP2 PUSH2 0x1293 JUMP JUMPDEST DUP3 ADD SWAP2 SWAP1 PUSH1 0x0 MSTORE PUSH1 0x20 PUSH1 0x0 KECCAK256 SWAP1 JUMPDEST DUP2 SLOAD DUP2 MSTORE SWAP1 PUSH1 0x1 ADD SWAP1 PUSH1 0x20 ADD DUP1 DUP4 GT PUSH2 0x1276 JUMPI DUP3 SWAP1 SUB PUSH1 0x1F AND DUP3 ADD SWAP2 JUMPDEST POP POP POP POP POP SWAP1 DUP1 PUSH1 0x5 ADD PUSH1 0x0 SWAP1 SLOAD SWAP1 PUSH2 0x100 EXP SWAP1 DIV PUSH20 0xFFFFFFFFFFFFFFFFFFFFFFFFFFFFFFFFFFFFFFFF AND SWAP1 DUP1 PUSH1 0x5 ADD PUSH1 0x14 SWAP1 SLOAD SWAP1 PUSH2 0x100 EXP SWAP1 DIV PUSH1 0xFF AND SWAP1 DUP1 PUSH1 0x6 ADD DUP1 SLOAD PUSH2 0x12E1 SWAP1 PUSH2 0x1EF1 JUMP JUMPDEST DUP1 PUSH1 0x1F ADD PUSH1 0x20 DUP1 SWAP2 DIV MUL PUSH1 0x20 ADD PUSH1 0x40 MLOAD SWAP1 DUP2 ADD PUSH1 0x40 MSTORE DUP1 SWAP3 SWAP2 SWAP1 DUP2 DUP2 MSTORE PUSH1 0x20 ADD DUP3 DUP1 SLOAD PUSH2 0x130D SWAP1 PUSH2 0x1EF1 JUMP JUMPDEST DUP1 ISZERO PUSH2 0x135A JUMPI DUP1 PUSH1 0x1F LT PUSH2 0x132F JUMPI PUSH2 0x100 DUP1 DUP4 SLOAD DIV MUL DUP4 MSTORE SWAP2 PUSH1 0x20 ADD SWAP2 PUSH2 0x135A JUMP JUMPDEST DUP3 ADD SWAP2 SWAP1 PUSH1 0x0 MSTORE PUSH1 0x20 PUSH1 0x0 KECCAK256 SWAP1 JUMPDEST DUP2 SLOAD DUP2 MSTORE SWAP1 PUSH1 0x1 ADD SWAP1 PUSH1 0x20 ADD DUP1 DUP4 GT PUSH2 0x133D JUMPI DUP3 SWAP1 SUB PUSH1 0x1F AND DUP3 ADD SWAP2 JUMPDEST POP POP POP POP POP SWAP1 POP DUP9 JUMP JUMPDEST PUSH1 0x60 PUSH1 0x6 DUP1 SLOAD DUP1 PUSH1 0x20 MUL PUSH1 0x20 ADD PUSH1 0x40 MLOAD SWAP1 DUP2 ADD PUSH1 0x40 MSTORE DUP1 SWAP3 SWAP2 SWAP1 DUP2 DUP2 MSTORE PUSH1 0x20 ADD DUP3 DUP1 SLOAD DUP1 ISZERO PUSH2 0x13E8 JUMPI PUSH1 0x20 MUL DUP3 ADD SWAP2 SWAP1 PUSH1 0x0 MSTORE PUSH1 0x20 PUSH1 0x0 KECCAK256 SWAP1 JUMPDEST DUP2 PUSH1 0x0 SWAP1 SLOAD SWAP1 PUSH2 0x100 EXP SWAP1 DIV PUSH20 0xFFFFFFFFFFFFFFFFFFFFFFFFFFFFFFFFFFFFFFFF AND PUSH20 0xFFFFFFFFFFFFFFFFFFFFFFFFFFFFFFFFFFFFFFFF AND DUP2 MSTORE PUSH1 0x20 ADD SWAP1 PUSH1 0x1 ADD SWAP1 DUP1 DUP4 GT PUSH2 0x139E JUMPI JUMPDEST POP POP POP POP POP SWAP1 POP SWAP1 JUMP JUMPDEST CALLER PUSH20 0xFFFFFFFFFFFFFFFFFFFFFFFFFFFFFFFFFFFFFFFF AND PUSH1 0x2 PUSH1 0x0 SWAP1 SLOAD SWAP1 PUSH2 0x100 EXP SWAP1 DIV PUSH20 0xFFFFFFFFFFFFFFFFFFFFFFFFFFFFFFFFFFFFFFFF AND PUSH20 0xFFFFFFFFFFFFFFFFFFFFFFFFFFFFFFFFFFFFFFFF AND EQ PUSH2 0x1482 JUMPI PUSH1 0x40 MLOAD PUSH32 0x8C379A000000000000000000000000000000000000000000000000000000000 DUP2 MSTORE PUSH1 0x4 ADD PUSH2 0x1479 SWAP1 PUSH2 0x251F JUMP JUMPDEST PUSH1 0x40 MLOAD DUP1 SWAP2 SUB SWAP1 REVERT JUMPDEST PUSH2 0x148C PUSH1 0x1 PUSH2 0x16B5 JUMP JUMPDEST PUSH1 0x0 PUSH2 0x1498 PUSH1 0x1 PUSH2 0x16CB JUMP JUMPDEST SWAP1 POP PUSH1 0x0 PUSH1 0x4 PUSH1 0x0 DUP9 PUSH20 0xFFFFFFFFFFFFFFFFFFFFFFFFFFFFFFFFFFFFFFFF AND PUSH20 0xFFFFFFFFFFFFFFFFFFFFFFFFFFFFFFFFFFFFFFFF AND DUP2 MSTORE PUSH1 0x20 ADD SWAP1 DUP2 MSTORE PUSH1 0x20 ADD PUSH1 0x0 KECCAK256 SWAP1 POP DUP2 DUP2 PUSH1 0x0 ADD DUP2 SWAP1 SSTORE POP DUP6 DUP2 PUSH1 0x2 ADD SWAP1 DUP2 PUSH2 0x14F7 SWAP2 SWAP1 PUSH2 0x22E1 JUMP JUMPDEST POP DUP5 DUP2 PUSH1 0x3 ADD SWAP1 DUP2 PUSH2 0x1509 SWAP2 SWAP1 PUSH2 0x22E1 JUMP JUMPDEST POP DUP4 DUP2 PUSH1 0x4 ADD SWAP1 DUP2 PUSH2 0x151B SWAP2 SWAP1 PUSH2 0x22E1 JUMP JUMPDEST POP PUSH1 0x0 DUP2 PUSH1 0x1 ADD DUP2 SWAP1 SSTORE POP DUP7 DUP2 PUSH1 0x5 ADD PUSH1 0x0 PUSH2 0x100 EXP DUP2 SLOAD DUP2 PUSH20 0xFFFFFFFFFFFFFFFFFFFFFFFFFFFFFFFFFFFFFFFF MUL NOT AND SWAP1 DUP4 PUSH20 0xFFFFFFFFFFFFFFFFFFFFFFFFFFFFFFFFFFFFFFFF AND MUL OR SWAP1 SSTORE POP DUP3 DUP2 PUSH1 0x6 ADD SWAP1 DUP2 PUSH2 0x157A SWAP2 SWAP1 PUSH2 0x22E1 JUMP JUMPDEST POP PUSH1 0x3 DUP8 SWAP1 DUP1 PUSH1 0x1 DUP2 SLOAD ADD DUP1 DUP3 SSTORE DUP1 SWAP2 POP POP PUSH1 0x1 SWAP1 SUB SWAP1 PUSH1 0x0 MSTORE PUSH1 0x20 PUSH1 0x0 KECCAK256 ADD PUSH1 0x0 SWAP1 SWAP2 SWAP1 SWAP2 SWAP1 SWAP2 PUSH2 0x100 EXP DUP2 SLOAD DUP2 PUSH20 0xFFFFFFFFFFFFFFFFFFFFFFFFFFFFFFFFFFFFFFFF MUL NOT AND SWAP1 DUP4 PUSH20 0xFFFFFFFFFFFFFFFFFFFFFFFFFFFFFFFFFFFFFFFF AND MUL OR SWAP1 SSTORE POP DUP2 PUSH32 0xFA766F092FA368698853D6C1D2191FFA738ABC81F3CF7456D26147EDBBED685F PUSH1 0x0 DUP9 DUP9 DUP9 DUP13 DUP10 PUSH1 0x40 MLOAD PUSH2 0x1619 SWAP7 SWAP6 SWAP5 SWAP4 SWAP3 SWAP2 SWAP1 PUSH2 0x253F JUMP JUMPDEST PUSH1 0x40 MLOAD DUP1 SWAP2 SUB SWAP1 LOG2 POP POP POP POP POP POP POP JUMP JUMPDEST PUSH1 0x3 DUP2 DUP2 SLOAD DUP2 LT PUSH2 0x163A JUMPI PUSH1 0x0 DUP1 REVERT JUMPDEST SWAP1 PUSH1 0x0 MSTORE PUSH1 0x20 PUSH1 0x0 KECCAK256 ADD PUSH1 0x0 SWAP2 POP SLOAD SWAP1 PUSH2 0x100 EXP SWAP1 DIV PUSH20 0xFFFFFFFFFFFFFFFFFFFFFFFFFFFFFFFFFFFFFFFF AND DUP2 JUMP JUMPDEST PUSH1 0x6 DUP2 DUP2 SLOAD DUP2 LT PUSH2 0x1679 JUMPI PUSH1 0x0 DUP1 REVERT JUMPDEST SWAP1 PUSH1 0x0 MSTORE PUSH1 0x20 PUSH1 0x0 KECCAK256 ADD PUSH1 0x0 SWAP2 POP SLOAD SWAP1 PUSH2 0x100 EXP SWAP1 DIV PUSH20 0xFFFFFFFFFFFFFFFFFFFFFFFFFFFFFFFFFFFFFFFF AND DUP2 JUMP JUMPDEST PUSH1 0x0 PUSH1 0x3 DUP1 SLOAD SWAP1 POP SWAP1 POP SWAP1 JUMP JUMPDEST PUSH1 0x1 DUP2 PUSH1 0x0 ADD PUSH1 0x0 DUP3 DUP3 SLOAD ADD SWAP3 POP POP DUP2 SWAP1 SSTORE POP POP JUMP JUMPDEST PUSH1 0x0 DUP2 PUSH1 0x0 ADD SLOAD SWAP1 POP SWAP2 SWAP1 POP JUMP JUMPDEST PUSH1 0x0 DUP2 SWAP1 POP SWAP2 SWAP1 POP JUMP JUMPDEST PUSH2 0x16EC DUP2 PUSH2 0x16D9 JUMP JUMPDEST DUP3 MSTORE POP POP JUMP JUMPDEST PUSH1 0x0 PUSH1 0x20 DUP3 ADD SWAP1 POP PUSH2 0x1707 PUSH1 0x0 DUP4 ADD DUP5 PUSH2 0x16E3 JUMP JUMPDEST SWAP3 SWAP2 POP POP JUMP JUMPDEST PUSH1 0x0 DUP2 MLOAD SWAP1 POP SWAP2 SWAP1 POP JUMP JUMPDEST PUSH1 0x0 DUP3 DUP3 MSTORE PUSH1 0x20 DUP3 ADD SWAP1 POP SWAP3 SWAP2 POP POP JUMP JUMPDEST PUSH1 0x0 DUP2 SWAP1 POP PUSH1 0x20 DUP3 ADD SWAP1 POP SWAP2 SWAP1 POP JUMP JUMPDEST PUSH1 0x0 PUSH20 0xFFFFFFFFFFFFFFFFFFFFFFFFFFFFFFFFFFFFFFFF DUP3 AND SWAP1 POP SWAP2 SWAP1 POP JUMP JUMPDEST PUSH1 0x0 PUSH2 0x1764 DUP3 PUSH2 0x1739 JUMP JUMPDEST SWAP1 POP SWAP2 SWAP1 POP JUMP JUMPDEST PUSH2 0x1774 DUP2 PUSH2 0x1759 JUMP JUMPDEST DUP3 MSTORE POP POP JUMP JUMPDEST PUSH1 0x0 PUSH2 0x1786 DUP4 DUP4 PUSH2 0x176B JUMP JUMPDEST PUSH1 0x20 DUP4 ADD SWAP1 POP SWAP3 SWAP2 POP POP JUMP JUMPDEST PUSH1 0x0 PUSH1 0x20 DUP3 ADD SWAP1 POP SWAP2 SWAP1 POP JUMP JUMPDEST PUSH1 0x0 PUSH2 0x17AA DUP3 PUSH2 0x170D JUMP JUMPDEST PUSH2 0x17B4 DUP2 DUP6 PUSH2 0x1718 JUMP JUMPDEST SWAP4 POP PUSH2 0x17BF DUP4 PUSH2 0x1729 JUMP JUMPDEST DUP1 PUSH1 0x0 JUMPDEST DUP4 DUP2 LT ISZERO PUSH2 0x17F0 JUMPI DUP2 MLOAD PUSH2 0x17D7 DUP9 DUP3 PUSH2 0x177A JUMP JUMPDEST SWAP8 POP PUSH2 0x17E2 DUP4 PUSH2 0x1792 JUMP JUMPDEST SWAP3 POP POP PUSH1 0x1 DUP2 ADD SWAP1 POP PUSH2 0x17C3 JUMP JUMPDEST POP DUP6 SWAP4 POP POP POP POP SWAP3 SWAP2 POP POP JUMP JUMPDEST PUSH1 0x0 PUSH1 0x20 DUP3 ADD SWAP1 POP DUP2 DUP2 SUB PUSH1 0x0 DUP4 ADD MSTORE PUSH2 0x1817 DUP2 DUP5 PUSH2 0x179F JUMP JUMPDEST SWAP1 POP SWAP3 SWAP2 POP POP JUMP JUMPDEST PUSH1 0x0 PUSH1 0x40 MLOAD SWAP1 POP SWAP1 JUMP JUMPDEST PUSH1 0x0 DUP1 REVERT JUMPDEST PUSH1 0x0 DUP1 REVERT JUMPDEST PUSH2 0x183C DUP2 PUSH2 0x1759 JUMP JUMPDEST DUP2 EQ PUSH2 0x1847 JUMPI PUSH1 0x0 DUP1 REVERT JUMPDEST POP JUMP JUMPDEST PUSH1 0x0 DUP2 CALLDATALOAD SWAP1 POP PUSH2 0x1859 DUP2 PUSH2 0x1833 JUMP JUMPDEST SWAP3 SWAP2 POP POP JUMP JUMPDEST PUSH1 0x0 PUSH1 0x20 DUP3 DUP5 SUB SLT ISZERO PUSH2 0x1875 JUMPI PUSH2 0x1874 PUSH2 0x1829 JUMP JUMPDEST JUMPDEST PUSH1 0x0 PUSH2 0x1883 DUP5 DUP3 DUP6 ADD PUSH2 0x184A JUMP JUMPDEST SWAP2 POP POP SWAP3 SWAP2 POP POP JUMP JUMPDEST PUSH1 0x0 DUP2 MLOAD SWAP1 POP SWAP2 SWAP1 POP JUMP JUMPDEST PUSH1 0x0 DUP3 DUP3 MSTORE PUSH1 0x20 DUP3 ADD SWAP1 POP SWAP3 SWAP2 POP POP JUMP JUMPDEST PUSH1 0x0 JUMPDEST DUP4 DUP2 LT ISZERO PUSH2 0x18C6 JUMPI DUP1 DUP3 ADD MLOAD DUP2 DUP5 ADD MSTORE PUSH1 0x20 DUP2 ADD SWAP1 POP PUSH2 0x18AB JUMP JUMPDEST PUSH1 0x0 DUP5 DUP5 ADD MSTORE POP POP POP POP JUMP JUMPDEST PUSH1 0x0 PUSH1 0x1F NOT PUSH1 0x1F DUP4 ADD AND SWAP1 POP SWAP2 SWAP1 POP JUMP JUMPDEST PUSH1 0x0 PUSH2 0x18EE DUP3 PUSH2 0x188C JUMP JUMPDEST PUSH2 0x18F8 DUP2 DUP6 PUSH2 0x1897 JUMP JUMPDEST SWAP4 POP PUSH2 0x1908 DUP2 DUP6 PUSH1 0x20 DUP7 ADD PUSH2 0x18A8 JUMP JUMPDEST PUSH2 0x1911 DUP2 PUSH2 0x18D2 JUMP JUMPDEST DUP5 ADD SWAP2 POP POP SWAP3 SWAP2 POP POP JUMP JUMPDEST PUSH2 0x1925 DUP2 PUSH2 0x1759 JUMP JUMPDEST DUP3 MSTORE POP POP JUMP JUMPDEST PUSH1 0x0 PUSH1 0xE0 DUP3 ADD SWAP1 POP DUP2 DUP2 SUB PUSH1 0x0 DUP4 ADD MSTORE PUSH2 0x1945 DUP2 DUP11 PUSH2 0x18E3 JUMP JUMPDEST SWAP1 POP DUP2 DUP2 SUB PUSH1 0x20 DUP4 ADD MSTORE PUSH2 0x1959 DUP2 DUP10 PUSH2 0x18E3 JUMP JUMPDEST SWAP1 POP PUSH2 0x1968 PUSH1 0x40 DUP4 ADD DUP9 PUSH2 0x16E3 JUMP JUMPDEST DUP2 DUP2 SUB PUSH1 0x60 DUP4 ADD MSTORE PUSH2 0x197A DUP2 DUP8 PUSH2 0x18E3 JUMP JUMPDEST SWAP1 POP PUSH2 0x1989 PUSH1 0x80 DUP4 ADD DUP7 PUSH2 0x16E3 JUMP JUMPDEST DUP2 DUP2 SUB PUSH1 0xA0 DUP4 ADD MSTORE PUSH2 0x199B DUP2 DUP6 PUSH2 0x18E3 JUMP JUMPDEST SWAP1 POP PUSH2 0x19AA PUSH1 0xC0 DUP4 ADD DUP5 PUSH2 0x191C JUMP JUMPDEST SWAP9 SWAP8 POP POP POP POP POP POP POP POP JUMP JUMPDEST PUSH1 0x0 PUSH1 0x20 DUP3 ADD SWAP1 POP PUSH2 0x19CB PUSH1 0x0 DUP4 ADD DUP5 PUSH2 0x191C JUMP JUMPDEST SWAP3 SWAP2 POP POP JUMP JUMPDEST PUSH1 0x0 DUP1 REVERT JUMPDEST PUSH1 0x0 DUP1 REVERT JUMPDEST PUSH32 0x4E487B7100000000000000000000000000000000000000000000000000000000 PUSH1 0x0 MSTORE PUSH1 0x41 PUSH1 0x4 MSTORE PUSH1 0x24 PUSH1 0x0 REVERT JUMPDEST PUSH2 0x1A13 DUP3 PUSH2 0x18D2 JUMP JUMPDEST DUP2 ADD DUP2 DUP2 LT PUSH8 0xFFFFFFFFFFFFFFFF DUP3 GT OR ISZERO PUSH2 0x1A32 JUMPI PUSH2 0x1A31 PUSH2 0x19DB JUMP JUMPDEST JUMPDEST DUP1 PUSH1 0x40 MSTORE POP POP POP JUMP JUMPDEST PUSH1 0x0 PUSH2 0x1A45 PUSH2 0x181F JUMP JUMPDEST SWAP1 POP PUSH2 0x1A51 DUP3 DUP3 PUSH2 0x1A0A JUMP JUMPDEST SWAP2 SWAP1 POP JUMP JUMPDEST PUSH1 0x0 PUSH8 0xFFFFFFFFFFFFFFFF DUP3 GT ISZERO PUSH2 0x1A71 JUMPI PUSH2 0x1A70 PUSH2 0x19DB JUMP JUMPDEST JUMPDEST PUSH2 0x1A7A DUP3 PUSH2 0x18D2 JUMP JUMPDEST SWAP1 POP PUSH1 0x20 DUP2 ADD SWAP1 POP SWAP2 SWAP1 POP JUMP JUMPDEST DUP3 DUP2 DUP4 CALLDATACOPY PUSH1 0x0 DUP4 DUP4 ADD MSTORE POP POP POP JUMP JUMPDEST PUSH1 0x0 PUSH2 0x1AA9 PUSH2 0x1AA4 DUP5 PUSH2 0x1A56 JUMP JUMPDEST PUSH2 0x1A3B JUMP JUMPDEST SWAP1 POP DUP3 DUP2 MSTORE PUSH1 0x20 DUP2 ADD DUP5 DUP5 DUP5 ADD GT ISZERO PUSH2 0x1AC5 JUMPI PUSH2 0x1AC4 PUSH2 0x19D6 JUMP JUMPDEST JUMPDEST PUSH2 0x1AD0 DUP5 DUP3 DUP6 PUSH2 0x1A87 JUMP JUMPDEST POP SWAP4 SWAP3 POP POP POP JUMP JUMPDEST PUSH1 0x0 DUP3 PUSH1 0x1F DUP4 ADD SLT PUSH2 0x1AED JUMPI PUSH2 0x1AEC PUSH2 0x19D1 JUMP JUMPDEST JUMPDEST DUP2 CALLDATALOAD PUSH2 0x1AFD DUP5 DUP3 PUSH1 0x20 DUP7 ADD PUSH2 0x1A96 JUMP JUMPDEST SWAP2 POP POP SWAP3 SWAP2 POP POP JUMP JUMPDEST PUSH1 0x0 DUP1 PUSH1 0x0 DUP1 PUSH1 0x80 DUP6 DUP8 SUB SLT ISZERO PUSH2 0x1B20 JUMPI PUSH2 0x1B1F PUSH2 0x1829 JUMP JUMPDEST JUMPDEST PUSH1 0x0 PUSH2 0x1B2E DUP8 DUP3 DUP9 ADD PUSH2 0x184A JUMP JUMPDEST SWAP5 POP POP PUSH1 0x20 DUP6 ADD CALLDATALOAD PUSH8 0xFFFFFFFFFFFFFFFF DUP2 GT ISZERO PUSH2 0x1B4F JUMPI PUSH2 0x1B4E PUSH2 0x182E JUMP JUMPDEST JUMPDEST PUSH2 0x1B5B DUP8 DUP3 DUP9 ADD PUSH2 0x1AD8 JUMP JUMPDEST SWAP4 POP POP PUSH1 0x40 DUP6 ADD CALLDATALOAD PUSH8 0xFFFFFFFFFFFFFFFF DUP2 GT ISZERO PUSH2 0x1B7C JUMPI PUSH2 0x1B7B PUSH2 0x182E JUMP JUMPDEST JUMPDEST PUSH2 0x1B88 DUP8 DUP3 DUP9 ADD PUSH2 0x1AD8 JUMP JUMPDEST SWAP3 POP POP PUSH1 0x60 DUP6 ADD CALLDATALOAD PUSH8 0xFFFFFFFFFFFFFFFF DUP2 GT ISZERO PUSH2 0x1BA9 JUMPI PUSH2 0x1BA8 PUSH2 0x182E JUMP JUMPDEST JUMPDEST PUSH2 0x1BB5 DUP8 DUP3 DUP9 ADD PUSH2 0x1AD8 JUMP JUMPDEST SWAP2 POP POP SWAP3 SWAP6 SWAP2 SWAP5 POP SWAP3 POP JUMP JUMPDEST PUSH2 0x1BCA DUP2 PUSH2 0x16D9 JUMP JUMPDEST DUP2 EQ PUSH2 0x1BD5 JUMPI PUSH1 0x0 DUP1 REVERT JUMPDEST POP JUMP JUMPDEST PUSH1 0x0 DUP2 CALLDATALOAD SWAP1 POP PUSH2 0x1BE7 DUP2 PUSH2 0x1BC1 JUMP JUMPDEST SWAP3 SWAP2 POP POP JUMP JUMPDEST PUSH1 0x0 PUSH1 0x20 DUP3 DUP5 SUB SLT ISZERO PUSH2 0x1C03 JUMPI PUSH2 0x1C02 PUSH2 0x1829 JUMP JUMPDEST JUMPDEST PUSH1 0x0 PUSH2 0x1C11 DUP5 DUP3 DUP6 ADD PUSH2 0x1BD8 JUMP JUMPDEST SWAP2 POP POP SWAP3 SWAP2 POP POP JUMP JUMPDEST PUSH1 0x0 PUSH1 0xE0 DUP3 ADD SWAP1 POP PUSH2 0x1C2F PUSH1 0x0 DUP4 ADD DUP11 PUSH2 0x16E3 JUMP JUMPDEST PUSH2 0x1C3C PUSH1 0x20 DUP4 ADD DUP10 PUSH2 0x16E3 JUMP JUMPDEST DUP2 DUP2 SUB PUSH1 0x40 DUP4 ADD MSTORE PUSH2 0x1C4E DUP2 DUP9 PUSH2 0x18E3 JUMP JUMPDEST SWAP1 POP DUP2 DUP2 SUB PUSH1 0x60 DUP4 ADD MSTORE PUSH2 0x1C62 DUP2 DUP8 PUSH2 0x18E3 JUMP JUMPDEST SWAP1 POP DUP2 DUP2 SUB PUSH1 0x80 DUP4 ADD MSTORE PUSH2 0x1C76 DUP2 DUP7 PUSH2 0x18E3 JUMP JUMPDEST SWAP1 POP PUSH2 0x1C85 PUSH1 0xA0 DUP4 ADD DUP6 PUSH2 0x191C JUMP JUMPDEST DUP2 DUP2 SUB PUSH1 0xC0 DUP4 ADD MSTORE PUSH2 0x1C97 DUP2 DUP5 PUSH2 0x18E3 JUMP JUMPDEST SWAP1 POP SWAP9 SWAP8 POP POP POP POP POP POP POP POP JUMP JUMPDEST PUSH1 0x0 DUP2 ISZERO ISZERO SWAP1 POP SWAP2 SWAP1 POP JUMP JUMPDEST PUSH2 0x1CBA DUP2 PUSH2 0x1CA5 JUMP JUMPDEST DUP3 MSTORE POP POP JUMP JUMPDEST PUSH1 0x0 PUSH1 0xE0 DUP3 ADD SWAP1 POP PUSH2 0x1CD5 PUSH1 0x0 DUP4 ADD DUP11 PUSH2 0x16E3 JUMP JUMPDEST DUP2 DUP2 SUB PUSH1 0x20 DUP4 ADD MSTORE PUSH2 0x1CE7 DUP2 DUP10 PUSH2 0x18E3 JUMP JUMPDEST SWAP1 POP DUP2 DUP2 SUB PUSH1 0x40 DUP4 ADD MSTORE PUSH2 0x1CFB DUP2 DUP9 PUSH2 0x18E3 JUMP JUMPDEST SWAP1 POP PUSH2 0x1D0A PUSH1 0x60 DUP4 ADD DUP8 PUSH2 0x191C JUMP JUMPDEST DUP2 DUP2 SUB PUSH1 0x80 DUP4 ADD MSTORE PUSH2 0x1D1C DUP2 DUP7 PUSH2 0x18E3 JUMP JUMPDEST SWAP1 POP PUSH2 0x1D2B PUSH1 0xA0 DUP4 ADD DUP6 PUSH2 0x16E3 JUMP JUMPDEST PUSH2 0x1D38 PUSH1 0xC0 DUP4 ADD DUP5 PUSH2 0x1CB1 JUMP JUMPDEST SWAP9 SWAP8 POP POP POP POP POP POP POP POP JUMP JUMPDEST PUSH1 0x0 PUSH2 0x100 DUP3 ADD SWAP1 POP PUSH2 0x1D5A PUSH1 0x0 DUP4 ADD DUP12 PUSH2 0x16E3 JUMP JUMPDEST PUSH2 0x1D67 PUSH1 0x20 DUP4 ADD DUP11 PUSH2 0x16E3 JUMP JUMPDEST PUSH2 0x1D74 PUSH1 0x40 DUP4 ADD DUP10 PUSH2 0x16E3 JUMP JUMPDEST DUP2 DUP2 SUB PUSH1 0x60 DUP4 ADD MSTORE PUSH2 0x1D86 DUP2 DUP9 PUSH2 0x18E3 JUMP JUMPDEST SWAP1 POP DUP2 DUP2 SUB PUSH1 0x80 DUP4 ADD MSTORE PUSH2 0x1D9A DUP2 DUP8 PUSH2 0x18E3 JUMP JUMPDEST SWAP1 POP PUSH2 0x1DA9 PUSH1 0xA0 DUP4 ADD DUP7 PUSH2 0x191C JUMP JUMPDEST PUSH2 0x1DB6 PUSH1 0xC0 DUP4 ADD DUP6 PUSH2 0x1CB1 JUMP JUMPDEST DUP2 DUP2 SUB PUSH1 0xE0 DUP4 ADD MSTORE PUSH2 0x1DC8 DUP2 DUP5 PUSH2 0x18E3 JUMP JUMPDEST SWAP1 POP SWAP10 SWAP9 POP POP POP POP POP POP POP POP POP JUMP JUMPDEST PUSH1 0x0 DUP1 PUSH1 0x0 DUP1 PUSH1 0x0 PUSH1 0xA0 DUP7 DUP9 SUB SLT ISZERO PUSH2 0x1DF3 JUMPI PUSH2 0x1DF2 PUSH2 0x1829 JUMP JUMPDEST JUMPDEST PUSH1 0x0 PUSH2 0x1E01 DUP9 DUP3 DUP10 ADD PUSH2 0x184A JUMP JUMPDEST SWAP6 POP POP PUSH1 0x20 DUP7 ADD CALLDATALOAD PUSH8 0xFFFFFFFFFFFFFFFF DUP2 GT ISZERO PUSH2 0x1E22 JUMPI PUSH2 0x1E21 PUSH2 0x182E JUMP JUMPDEST JUMPDEST PUSH2 0x1E2E DUP9 DUP3 DUP10 ADD PUSH2 0x1AD8 JUMP JUMPDEST SWAP5 POP POP PUSH1 0x40 DUP7 ADD CALLDATALOAD PUSH8 0xFFFFFFFFFFFFFFFF DUP2 GT ISZERO PUSH2 0x1E4F JUMPI PUSH2 0x1E4E PUSH2 0x182E JUMP JUMPDEST JUMPDEST PUSH2 0x1E5B DUP9 DUP3 DUP10 ADD PUSH2 0x1AD8 JUMP JUMPDEST SWAP4 POP POP PUSH1 0x60 DUP7 ADD CALLDATALOAD PUSH8 0xFFFFFFFFFFFFFFFF DUP2 GT ISZERO PUSH2 0x1E7C JUMPI PUSH2 0x1E7B PUSH2 0x182E JUMP JUMPDEST JUMPDEST PUSH2 0x1E88 DUP9 DUP3 DUP10 ADD PUSH2 0x1AD8 JUMP JUMPDEST SWAP3 POP POP PUSH1 0x80 DUP7 ADD CALLDATALOAD PUSH8 0xFFFFFFFFFFFFFFFF DUP2 GT ISZERO PUSH2 0x1EA9 JUMPI PUSH2 0x1EA8 PUSH2 0x182E JUMP JUMPDEST JUMPDEST PUSH2 0x1EB5 DUP9 DUP3 DUP10 ADD PUSH2 0x1AD8 JUMP JUMPDEST SWAP2 POP POP SWAP3 SWAP6 POP SWAP3 SWAP6 SWAP1 SWAP4 POP JUMP JUMPDEST PUSH32 0x4E487B7100000000000000000000000000000000000000000000000000000000 PUSH1 0x0 MSTORE PUSH1 0x22 PUSH1 0x4 MSTORE PUSH1 0x24 PUSH1 0x0 REVERT JUMPDEST PUSH1 0x0 PUSH1 0x2 DUP3 DIV SWAP1 POP PUSH1 0x1 DUP3 AND DUP1 PUSH2 0x1F09 JUMPI PUSH1 0x7F DUP3 AND SWAP2 POP JUMPDEST PUSH1 0x20 DUP3 LT DUP2 SUB PUSH2 0x1F1C JUMPI PUSH2 0x1F1B PUSH2 0x1EC2 JUMP JUMPDEST JUMPDEST POP SWAP2 SWAP1 POP JUMP JUMPDEST PUSH32 0x596F75206861766520616C726561647920766F74656400000000000000000000 PUSH1 0x0 DUP3 ADD MSTORE POP JUMP JUMPDEST PUSH1 0x0 PUSH2 0x1F58 PUSH1 0x16 DUP4 PUSH2 0x1897 JUMP JUMPDEST SWAP2 POP PUSH2 0x1F63 DUP3 PUSH2 0x1F22 JUMP JUMPDEST PUSH1 0x20 DUP3 ADD SWAP1 POP SWAP2 SWAP1 POP JUMP JUMPDEST PUSH1 0x0 PUSH1 0x20 DUP3 ADD SWAP1 POP DUP2 DUP2 SUB PUSH1 0x0 DUP4 ADD MSTORE PUSH2 0x1F87 DUP2 PUSH2 0x1F4B JUMP JUMPDEST SWAP1 POP SWAP2 SWAP1 POP JUMP JUMPDEST PUSH32 0x596F752068617665206E6F20726967687420746F20766F746500000000000000 PUSH1 0x0 DUP3 ADD MSTORE POP JUMP JUMPDEST PUSH1 0x0 PUSH2 0x1FC4 PUSH1 0x19 DUP4 PUSH2 0x1897 JUMP JUMPDEST SWAP2 POP PUSH2 0x1FCF DUP3 PUSH2 0x1F8E JUMP JUMPDEST PUSH1 0x20 DUP3 ADD SWAP1 POP SWAP2 SWAP1 POP JUMP JUMPDEST PUSH1 0x0 PUSH1 0x20 DUP3 ADD SWAP1 POP DUP2 DUP2 SUB PUSH1 0x0 DUP4 ADD MSTORE PUSH2 0x1FF3 DUP2 PUSH2 0x1FB7 JUMP JUMPDEST SWAP1 POP SWAP2 SWAP1 POP JUMP JUMPDEST PUSH32 0x4E487B7100000000000000000000000000000000000000000000000000000000 PUSH1 0x0 MSTORE PUSH1 0x11 PUSH1 0x4 MSTORE PUSH1 0x24 PUSH1 0x0 REVERT JUMPDEST PUSH1 0x0 PUSH2 0x2034 DUP3 PUSH2 0x16D9 JUMP JUMPDEST SWAP2 POP PUSH2 0x203F DUP4 PUSH2 0x16D9 JUMP JUMPDEST SWAP3 POP DUP3 DUP3 ADD SWAP1 POP DUP1 DUP3 GT ISZERO PUSH2 0x2057 JUMPI PUSH2 0x2056 PUSH2 0x1FFA JUMP JUMPDEST JUMPDEST SWAP3 SWAP2 POP POP JUMP JUMPDEST PUSH32 0x4F6E6C79206F7267616E697A65722063616E2063726561746520766F74657273 PUSH1 0x0 DUP3 ADD MSTORE POP JUMP JUMPDEST PUSH1 0x0 PUSH2 0x2093 PUSH1 0x20 DUP4 PUSH2 0x1897 JUMP JUMPDEST SWAP2 POP PUSH2 0x209E DUP3 PUSH2 0x205D JUMP JUMPDEST PUSH1 0x20 DUP3 ADD SWAP1 POP SWAP2 SWAP1 POP JUMP JUMPDEST PUSH1 0x0 PUSH1 0x20 DUP3 ADD SWAP1 POP DUP2 DUP2 SUB PUSH1 0x0 DUP4 ADD MSTORE PUSH2 0x20C2 DUP2 PUSH2 0x2086 JUMP JUMPDEST SWAP1 POP SWAP2 SWAP1 POP JUMP JUMPDEST PUSH32 0x566F74657220616C726561647920616C6C6F7765640000000000000000000000 PUSH1 0x0 DUP3 ADD MSTORE POP JUMP JUMPDEST PUSH1 0x0 PUSH2 0x20FF PUSH1 0x15 DUP4 PUSH2 0x1897 JUMP JUMPDEST SWAP2 POP PUSH2 0x210A DUP3 PUSH2 0x20C9 JUMP JUMPDEST PUSH1 0x20 DUP3 ADD SWAP1 POP SWAP2 SWAP1 POP JUMP JUMPDEST PUSH1 0x0 PUSH1 0x20 DUP3 ADD SWAP1 POP DUP2 DUP2 SUB PUSH1 0x0 DUP4 ADD MSTORE PUSH2 0x212E DUP2 PUSH2 0x20F2 JUMP JUMPDEST SWAP1 POP SWAP2 SWAP1 POP JUMP JUMPDEST PUSH1 0x0 DUP2 SWAP1 POP DUP2 PUSH1 0x0 MSTORE PUSH1 0x20 PUSH1 0x0 KECCAK256 SWAP1 POP SWAP2 SWAP1 POP JUMP JUMPDEST PUSH1 0x0 PUSH1 0x20 PUSH1 0x1F DUP4 ADD DIV SWAP1 POP SWAP2 SWAP1 POP JUMP JUMPDEST PUSH1 0x0 DUP3 DUP3 SHL SWAP1 POP SWAP3 SWAP2 POP POP JUMP JUMPDEST PUSH1 0x0 PUSH1 0x8 DUP4 MUL PUSH2 0x2197 PUSH32 0xFFFFFFFFFFFFFFFFFFFFFFFFFFFFFFFFFFFFFFFFFFFFFFFFFFFFFFFFFFFFFFFF DUP3 PUSH2 0x215A JUMP JUMPDEST PUSH2 0x21A1 DUP7 DUP4 PUSH2 0x215A JUMP JUMPDEST SWAP6 POP DUP1 NOT DUP5 AND SWAP4 POP DUP1 DUP7 AND DUP5 OR SWAP3 POP POP POP SWAP4 SWAP3 POP POP POP JUMP JUMPDEST PUSH1 0x0 DUP2 SWAP1 POP SWAP2 SWAP1 POP JUMP JUMPDEST PUSH1 0x0 PUSH2 0x21DE PUSH2 0x21D9 PUSH2 0x21D4 DUP5 PUSH2 0x16D9 JUMP JUMPDEST PUSH2 0x21B9 JUMP JUMPDEST PUSH2 0x16D9 JUMP JUMPDEST SWAP1 POP SWAP2 SWAP1 POP JUMP JUMPDEST PUSH1 0x0 DUP2 SWAP1 POP SWAP2 SWAP1 POP JUMP JUMPDEST PUSH2 0x21F8 DUP4 PUSH2 0x21C3 JUMP JUMPDEST PUSH2 0x220C PUSH2 0x2204 DUP3 PUSH2 0x21E5 JUMP JUMPDEST DUP5 DUP5 SLOAD PUSH2 0x2167 JUMP JUMPDEST DUP3 SSTORE POP POP POP POP JUMP JUMPDEST PUSH1 0x0 SWAP1 JUMP JUMPDEST PUSH2 0x2221 PUSH2 0x2214 JUMP JUMPDEST PUSH2 0x222C DUP2 DUP5 DUP5 PUSH2 0x21EF JUMP JUMPDEST POP POP POP JUMP JUMPDEST JUMPDEST DUP2 DUP2 LT ISZERO PUSH2 0x2250 JUMPI PUSH2 0x2245 PUSH1 0x0 DUP3 PUSH2 0x2219 JUMP JUMPDEST PUSH1 0x1 DUP2 ADD SWAP1 POP PUSH2 0x2232 JUMP JUMPDEST POP POP JUMP JUMPDEST PUSH1 0x1F DUP3 GT ISZERO PUSH2 0x2295 JUMPI PUSH2 0x2266 DUP2 PUSH2 0x2135 JUMP JUMPDEST PUSH2 0x226F DUP5 PUSH2 0x214A JUMP JUMPDEST DUP2 ADD PUSH1 0x20 DUP6 LT ISZERO PUSH2 0x227E JUMPI DUP2 SWAP1 POP JUMPDEST PUSH2 0x2292 PUSH2 0x228A DUP6 PUSH2 0x214A JUMP JUMPDEST DUP4 ADD DUP3 PUSH2 0x2231 JUMP JUMPDEST POP POP JUMPDEST POP POP POP JUMP JUMPDEST PUSH1 0x0 DUP3 DUP3 SHR SWAP1 POP SWAP3 SWAP2 POP POP JUMP JUMPDEST PUSH1 0x0 PUSH2 0x22B8 PUSH1 0x0 NOT DUP5 PUSH1 0x8 MUL PUSH2 0x229A JUMP JUMPDEST NOT DUP1 DUP4 AND SWAP2 POP POP SWAP3 SWAP2 POP POP JUMP JUMPDEST PUSH1 0x0 PUSH2 0x22D1 DUP4 DUP4 PUSH2 0x22A7 JUMP JUMPDEST SWAP2 POP DUP3 PUSH1 0x2 MUL DUP3 OR SWAP1 POP SWAP3 SWAP2 POP POP JUMP JUMPDEST PUSH2 0x22EA DUP3 PUSH2 0x188C JUMP JUMPDEST PUSH8 0xFFFFFFFFFFFFFFFF DUP2 GT ISZERO PUSH2 0x2303 JUMPI PUSH2 0x2302 PUSH2 0x19DB JUMP JUMPDEST JUMPDEST PUSH2 0x230D DUP3 SLOAD PUSH2 0x1EF1 JUMP JUMPDEST PUSH2 0x2318 DUP3 DUP3 DUP6 PUSH2 0x2254 JUMP JUMPDEST PUSH1 0x0 PUSH1 0x20 SWAP1 POP PUSH1 0x1F DUP4 GT PUSH1 0x1 DUP2 EQ PUSH2 0x234B JUMPI PUSH1 0x0 DUP5 ISZERO PUSH2 0x2339 JUMPI DUP3 DUP8 ADD MLOAD SWAP1 POP JUMPDEST PUSH2 0x2343 DUP6 DUP3 PUSH2 0x22C5 JUMP JUMPDEST DUP7 SSTORE POP PUSH2 0x23AB JUMP JUMPDEST PUSH1 0x1F NOT DUP5 AND PUSH2 0x2359 DUP7 PUSH2 0x2135 JUMP JUMPDEST PUSH1 0x0 JUMPDEST DUP3 DUP2 LT ISZERO PUSH2 0x2381 JUMPI DUP5 DUP10 ADD MLOAD DUP3 SSTORE PUSH1 0x1 DUP3 ADD SWAP2 POP PUSH1 0x20 DUP6 ADD SWAP5 POP PUSH1 0x20 DUP2 ADD SWAP1 POP PUSH2 0x235C JUMP JUMPDEST DUP7 DUP4 LT ISZERO PUSH2 0x239E JUMPI DUP5 DUP10 ADD MLOAD PUSH2 0x239A PUSH1 0x1F DUP10 AND DUP3 PUSH2 0x22A7 JUMP JUMPDEST DUP4 SSTORE POP JUMPDEST PUSH1 0x1 PUSH1 0x2 DUP9 MUL ADD DUP9 SSTORE POP POP POP JUMPDEST POP POP POP POP POP POP JUMP JUMPDEST PUSH1 0x0 DUP2 SWAP1 POP SWAP2 SWAP1 POP JUMP JUMPDEST PUSH1 0x0 PUSH2 0x23D8 PUSH2 0x23D3 PUSH2 0x23CE DUP5 PUSH2 0x23B3 JUMP JUMPDEST PUSH2 0x21B9 JUMP JUMPDEST PUSH2 0x16D9 JUMP JUMPDEST SWAP1 POP SWAP2 SWAP1 POP JUMP JUMPDEST PUSH2 0x23E8 DUP2 PUSH2 0x23BD JUMP JUMPDEST DUP3 MSTORE POP POP JUMP JUMPDEST PUSH1 0x0 DUP2 SWAP1 POP SWAP2 SWAP1 POP JUMP JUMPDEST PUSH1 0x0 PUSH2 0x2413 PUSH2 0x240E PUSH2 0x2409 DUP5 PUSH2 0x23EE JUMP JUMPDEST PUSH2 0x21B9 JUMP JUMPDEST PUSH2 0x16D9 JUMP JUMPDEST SWAP1 POP SWAP2 SWAP1 POP JUMP JUMPDEST PUSH2 0x2423 DUP2 PUSH2 0x23F8 JUMP JUMPDEST DUP3 MSTORE POP POP JUMP JUMPDEST PUSH1 0x0 PUSH1 0xE0 DUP3 ADD SWAP1 POP PUSH2 0x243E PUSH1 0x0 DUP4 ADD DUP11 PUSH2 0x23DF JUMP JUMPDEST PUSH2 0x244B PUSH1 0x20 DUP4 ADD DUP10 PUSH2 0x241A JUMP JUMPDEST DUP2 DUP2 SUB PUSH1 0x40 DUP4 ADD MSTORE PUSH2 0x245D DUP2 DUP9 PUSH2 0x18E3 JUMP JUMPDEST SWAP1 POP DUP2 DUP2 SUB PUSH1 0x60 DUP4 ADD MSTORE PUSH2 0x2471 DUP2 DUP8 PUSH2 0x18E3 JUMP JUMPDEST SWAP1 POP PUSH2 0x2480 PUSH1 0x80 DUP4 ADD DUP7 PUSH2 0x191C JUMP JUMPDEST PUSH2 0x248D PUSH1 0xA0 DUP4 ADD DUP6 PUSH2 0x1CB1 JUMP JUMPDEST DUP2 DUP2 SUB PUSH1 0xC0 DUP4 ADD MSTORE PUSH2 0x249F DUP2 DUP5 PUSH2 0x18E3 JUMP JUMPDEST SWAP1 POP SWAP9 SWAP8 POP POP POP POP POP POP POP POP JUMP JUMPDEST PUSH32 0x4F6E6C79204F7267616E697A65722063616E206372656174652063616E646964 PUSH1 0x0 DUP3 ADD MSTORE PUSH32 0x6174657300000000000000000000000000000000000000000000000000000000 PUSH1 0x20 DUP3 ADD MSTORE POP JUMP JUMPDEST PUSH1 0x0 PUSH2 0x2509 PUSH1 0x24 DUP4 PUSH2 0x1897 JUMP JUMPDEST SWAP2 POP PUSH2 0x2514 DUP3 PUSH2 0x24AD JUMP JUMPDEST PUSH1 0x40 DUP3 ADD SWAP1 POP SWAP2 SWAP1 POP JUMP JUMPDEST PUSH1 0x0 PUSH1 0x20 DUP3 ADD SWAP1 POP DUP2 DUP2 SUB PUSH1 0x0 DUP4 ADD MSTORE PUSH2 0x2538 DUP2 PUSH2 0x24FC JUMP JUMPDEST SWAP1 POP SWAP2 SWAP1 POP JUMP JUMPDEST PUSH1 0x0 PUSH1 0xC0 DUP3 ADD SWAP1 POP PUSH2 0x2554 PUSH1 0x0 DUP4 ADD DUP10 PUSH2 0x241A JUMP JUMPDEST DUP2 DUP2 SUB PUSH1 0x20 DUP4 ADD MSTORE PUSH2 0x2566 DUP2 DUP9 PUSH2 0x18E3 JUMP JUMPDEST SWAP1 POP DUP2 DUP2 SUB PUSH1 0x40 DUP4 ADD MSTORE PUSH2 0x257A DUP2 DUP8 PUSH2 0x18E3 JUMP JUMPDEST SWAP1 POP DUP2 DUP2 SUB PUSH1 0x60 DUP4 ADD MSTORE PUSH2 0x258E DUP2 DUP7 PUSH2 0x18E3 JUMP JUMPDEST SWAP1 POP PUSH2 0x259D PUSH1 0x80 DUP4 ADD DUP6 PUSH2 0x191C JUMP JUMPDEST DUP2 DUP2 SUB PUSH1 0xA0 DUP4 ADD MSTORE PUSH2 0x25AF DUP2 DUP5 PUSH2 0x18E3 JUMP JUMPDEST SWAP1 POP SWAP8 SWAP7 POP POP POP POP POP POP POP JUMP INVALID LOG2 PUSH5 0x6970667358 0x22 SLT KECCAK256 0xA5 0xCC COINBASE DELEGATECALL MSTORE8 SWAP4 BLOCKHASH GAS 0xC PUSH30 0x7EE367056D28B4B262061B346DF7EA8A2E7613FEF99064736F6C63430008 XOR STOP CALLER "},"methodIdentifiers":{"candidateAddresses(uint256)":"d55d73c5","candidates(address)":"8ab66a90","getCandidateData(address)":"2a466ac7","getCandidateLength()":"f7522a83","getCandidates()":"06a49fce","getVotedVoterList()":"8e945685","getVoterData(address)":"8fb4cd80","getVoterLength()":"05ad45a4","getVoterList()":"b28d92ae","giveVoterRight(address,string,string,string)":"77a3f3d6","setCandidate(address,string,string,string,string)":"c91ec712","vote(address)":"6dd7d8ea","votedVoters(uint256)":"7831ffb3","voterAddresses(uint256)":"dd0e2373","voters(address)":"a3ec138d","votingOrganizer()":"5cc48aa7"}}}}}